Component: ARM Compiler 5.05 update 1 (build 106) Tool: armlink [4d0efa]

==============================================================================

Section Cross References

    startup_stm32f103xe.o(STACK) refers (Special) to heapauxi.o(.text) for __use_two_region_memory
    startup_stm32f103xe.o(HEAP) refers (Special) to heapauxi.o(.text) for __use_two_region_memory
    startup_stm32f103xe.o(RESET) refers (Special) to heapauxi.o(.text) for __use_two_region_memory
    startup_stm32f103xe.o(RESET) refers to startup_stm32f103xe.o(STACK) for __initial_sp
    startup_stm32f103xe.o(RESET) refers to startup_stm32f103xe.o(.text) for Reset_Handler
    startup_stm32f103xe.o(RESET) refers to stm32f1xx_it.o(i.NMI_Handler) for NMI_Handler
    startup_stm32f103xe.o(RESET) refers to stm32f1xx_it.o(i.HardFault_Handler) for HardFault_Handler
    startup_stm32f103xe.o(RESET) refers to stm32f1xx_it.o(i.MemManage_Handler) for MemManage_Handler
    startup_stm32f103xe.o(RESET) refers to stm32f1xx_it.o(i.BusFault_Handler) for BusFault_Handler
    startup_stm32f103xe.o(RESET) refers to stm32f1xx_it.o(i.UsageFault_Handler) for UsageFault_Handler
    startup_stm32f103xe.o(RESET) refers to stm32f1xx_it.o(i.SVC_Handler) for SVC_Handler
    startup_stm32f103xe.o(RESET) refers to stm32f1xx_it.o(i.DebugMon_Handler) for DebugMon_Handler
    startup_stm32f103xe.o(RESET) refers to stm32f1xx_it.o(i.PendSV_Handler) for PendSV_Handler
    startup_stm32f103xe.o(RESET) refers to stm32f1xx_it.o(i.SysTick_Handler) for SysTick_Handler
    startup_stm32f103xe.o(RESET) refers to stm32f1xx_it.o(i.EXTI0_IRQHandler) for EXTI0_IRQHandler
    startup_stm32f103xe.o(RESET) refers to stm32f1xx_it.o(i.DMA1_Channel1_IRQHandler) for DMA1_Channel1_IRQHandler
    startup_stm32f103xe.o(RESET) refers to stm32f1xx_it.o(i.EXTI9_5_IRQHandler) for EXTI9_5_IRQHandler
    startup_stm32f103xe.o(RESET) refers to stm32f1xx_it.o(i.EXTI15_10_IRQHandler) for EXTI15_10_IRQHandler
==============================================================================

Removing Unused input sections from the image.

    Removing main.o(.rev16_text), (4 bytes).
    Removing main.o(.revsh_text), (4 bytes).
    Removing main.o(.rrx_text), (6 bytes).
    Removing gpio.o(.rev16_text), (4 bytes).
    Removing gpio.o(.revsh_text), (4 bytes).
    Removing gpio.o(.rrx_text), (6 bytes).
    Removing adc.o(.rev16_text), (4 bytes).
    Removing adc.o(.revsh_text), (4 bytes).
    Removing adc.o(.rrx_text), (6 bytes).
    Removing adc.o(i.HAL_ADC_MspDeInit), (56 bytes).
    Removing dma.o(.rev16_text), (4 bytes).
    Removing dma.o(.revsh_text), (4 bytes).
    Removing dma.o(.rrx_text), (6 bytes).
    Removing tim.o(.rev16_text), (4 bytes).
    Removing tim.o(.revsh_text), (4 bytes).
    Removing tim.o(.rrx_text), (6 bytes).
    Removing stm32f1xx_it.o(.rev16_text), (4 bytes).
    Removing stm32f1xx_it.o(.revsh_text), (4 bytes).
==============================================================================

Image Symbol Table

    Local Symbols

    Symbol Name                              Value     Ov Type        Size  Object(Section)

    ../Core/Src/adc.c                        0x00000000   Number         0  adc.o ABSOLUTE
    ../Core/Src/dma.c                        0x00000000   Number         0  dma.o ABSOLUTE
    ../Core/Src/gpio.c                       0x00000000   Number         0  gpio.o ABSOLUTE
    ../Core/Src/main.c                       0x00000000   Number         0  main.o ABSOLUTE
    ../Core/Src/stm32f1xx_hal_msp.c          0x00000000   Number         0  stm32f1xx_hal_msp.o ABSOLUTE
    ../Core/Src/stm32f1xx_it.c               0x00000000   Number         0  stm32f1xx_it.o ABSOLUTE
    ../Core/Src/system_stm32f1xx.c           0x00000000   Number         0  system_stm32f1xx.o ABSOLUTE
    ../Core/Src/tim.c                        0x00000000   Number         0  tim.o ABSOLUTE
    ../Drivers/STM32F1xx_HAL_Driver/Src/stm32f1xx_hal.c 0x00000000   Number         0  stm32f1xx_hal.o ABSOLUTE
    ../Drivers/STM32F1xx_HAL_Driver/Src/stm32f1xx_hal_adc.c 0x00000000   Number         0  stm32f1xx_hal_adc.o ABSOLUTE
    ../Drivers/STM32F1xx_HAL_Driver/Src/stm32f1xx_hal_adc_ex.c 0x00000000   Number         0  stm32f1xx_hal_adc_ex.o ABSOLUTE
    ../Drivers/STM32F1xx_HAL_Driver/Src/stm32f1xx_hal_cortex.c 0x00000000   Number         0  stm32f1xx_hal_cortex.o ABSOLUTE
    ../Drivers/STM32F1xx_HAL_Driver/Src/stm32f1xx_hal_dma.c 0x00000000   Number         0  stm32f1xx_hal_dma.o ABSOLUTE
    ../Drivers/STM32F1xx_HAL_Driver/Src/stm32f1xx_hal_exti.c 0x00000000   Number         0  stm32f1xx_hal_exti.o ABSOLUTE
    ../Drivers/STM32F1xx_HAL_Driver/Src/stm32f1xx_hal_flash.c 0x00000000   Number         0  stm32f1xx_hal_flash.o ABSOLUTE
    ../Drivers/STM32F1xx_HAL_Driver/Src/stm32f1xx_hal_flash_ex.c 0x00000000   Number         0  stm32f1xx_hal_flash_ex.o ABSOLUTE
    ../Drivers/STM32F1xx_HAL_Driver/Src/stm32f1xx_hal_gpio.c 0x00000000   Number         0  stm32f1xx_hal_gpio.o ABSOLUTE
    ../Drivers/STM32F1xx_HAL_Driver/Src/stm32f1xx_hal_gpio_ex.c 0x00000000   Number         0  stm32f1xx_hal_gpio_ex.o ABSOLUTE
    ../Drivers/STM32F1xx_HAL_Driver/Src/stm32f1xx_hal_pwr.c 0x00000000   Number         0  stm32f1xx_hal_pwr.o ABSOLUTE
    ../Drivers/STM32F1xx_HAL_Driver/Src/stm32f1xx_hal_rcc.c 0x00000000   Number         0  stm32f1xx_hal_rcc.o ABSOLUTE
    ../Drivers/STM32F1xx_HAL_Driver/Src/stm32f1xx_hal_rcc_ex.c 0x00000000   Number         0  stm32f1xx_hal_rcc_ex.o ABSOLUTE
    ../Drivers/STM32F1xx_HAL_Driver/Src/stm32f1xx_hal_tim.c 0x00000000   Number         0  stm32f1xx_hal_tim.o ABSOLUTE
    ../Drivers/STM32F1xx_HAL_Driver/Src/stm32f1xx_hal_tim_ex.c 0x00000000   Number         0  stm32f1xx_hal_tim_ex.o ABSOLUTE
    ../clib/angel/boardlib.s                 0x00000000   Number         0  boardshut.o ABSOLUTE
    ../clib/angel/boardlib.s                 0x00000000   Number         0  boardinit1.o ABSOLUTE
    ../clib/angel/boardlib.s                 0x00000000   Number         0  boardinit2.o ABSOLUTE
    ../clib/angel/boardlib.s                 0x00000000   Number         0  boardinit3.o ABSOLUTE
    ../clib/angel/handlers.s                 0x00000000   Number         0  __scatter_zi.o ABSOLUTE
    ../clib/angel/handlers.s                 0x00000000   Number         0  __scatter_copy.o ABSOLUTE
    ../clib/angel/kernel.s                   0x00000000   Number         0  __rtentry.o ABSOLUTE
    ../clib/angel/kernel.s                   0x00000000   Number         0  rtexit.o ABSOLUTE
    ../clib/angel/kernel.s                   0x00000000   Number         0  rtexit2.o ABSOLUTE
    ../clib/angel/kernel.s                   0x00000000   Number         0  __rtentry4.o ABSOLUTE
    ../clib/angel/kernel.s                   0x00000000   Number         0  __rtentry2.o ABSOLUTE
    ../clib/angel/rt.s                       0x00000000   Number         0  rt_raise.o ABSOLUTE
    ../clib/angel/rt.s                       0x00000000   Number         0  rt_locale_intlibspace.o ABSOLUTE
    ../clib/angel/rt.s                       0x00000000   Number         0  rt_locale.o ABSOLUTE
    ../clib/angel/scatter.s                  0x00000000   Number         0  __scatter.o ABSOLUTE
    ../clib/angel/startup.s                  0x00000000   Number         0  __main.o ABSOLUTE
    ../clib/angel/sys.s                      0x00000000   Number         0  use_no_semi.o ABSOLUTE
    ../clib/angel/sys.s                      0x00000000   Number         0  indicate_semi.o ABSOLUTE
    ../clib/angel/sys.s                      0x00000000   Number         0  sys_stackheap_outer.o ABSOLUTE
    ../clib/angel/sys.s                      0x00000000   Number         0  libspace.o ABSOLUTE
    ../clib/angel/sysapp.c                   0x00000000   Number         0  sys_wrch.o ABSOLUTE
    ../clib/angel/sysapp.c                   0x00000000   Number         0  sys_command.o ABSOLUTE
    ../clib/angel/sysapp.c                   0x00000000   Number         0  sys_exit.o ABSOLUTE
    ../clib/armsys.c                         0x00000000   Number         0  argv_veneer.o ABSOLUTE
    ../clib/armsys.c                         0x00000000   Number         0  _get_argv_nomalloc.o ABSOLUTE
    ../clib/armsys.c                         0x00000000   Number         0  no_argv.o ABSOLUTE
    ../clib/armsys.c                         0x00000000   Number         0  argv_veneer.o ABSOLUTE
    ../clib/bigflt.c                         0x00000000   Number         0  bigflt0.o ABSOLUTE
    ../clib/btod.s                           0x00000000   Number         0  btod.o ABSOLUTE
    ../clib/heapalloc.c                      0x00000000   Number         0  hrguard.o ABSOLUTE
    ../clib/heapaux.c                        0x00000000   Number         0  heapauxi.o ABSOLUTE
    ../clib/libinit.s                        0x00000000   Number         0  libinit2.o ABSOLUTE
    ../clib/libinit.s                        0x00000000   Number         0  libinit.o ABSOLUTE
    ../clib/libinit.s                        0x00000000   Number         0  libshutdown.o ABSOLUTE
    ../clib/libinit.s                        0x00000000   Number         0  libshutdown2.o ABSOLUTE
    ../clib/locale.s                         0x00000000   Number         0  lc_numeric_c.o ABSOLUTE
    ../clib/longlong.s                       0x00000000   Number         0  llushr.o ABSOLUTE
    ../clib/longlong.s                       0x00000000   Number         0  lludiv10.o ABSOLUTE
    ../clib/memcpset.s                       0x00000000   Number         0  strcmpv7m.o ABSOLUTE
    ../clib/memcpset.s                       0x00000000   Number         0  rt_memclr_w.o ABSOLUTE
    ../clib/misc.s                           0x00000000   Number         0  printf_stubs.o ABSOLUTE
    ../clib/printf.c                         0x00000000   Number         0  __printf_flags_ss.o ABSOLUTE
    ../clib/printf.c                         0x00000000   Number         0  __printf_wp.o ABSOLUTE
    ../clib/printf.c                         0x00000000   Number         0  __2sprintf.o ABSOLUTE
    ../clib/printf.c                         0x00000000   Number         0  _sputc.o ABSOLUTE
    ../clib/printf.c                         0x00000000   Number         0  __printf_ss_wp.o ABSOLUTE
    ../clib/printf.c                         0x00000000   Number         0  noretval__2sprintf.o ABSOLUTE
    ../clib/printf.c                         0x00000000   Number         0  _printf_intcommon.o ABSOLUTE
    ../clib/printf.c                         0x00000000   Number         0  _printf_fp_dec.o ABSOLUTE
    ../clib/printf.c                         0x00000000   Number         0  _printf_char_common.o ABSOLUTE
    ../clib/printf.c                         0x00000000   Number         0  __printf.o ABSOLUTE
    ../clib/printf.c                         0x00000000   Number         0  _printf_dec.o ABSOLUTE
    ../clib/printf.c                         0x00000000   Number         0  __printf_nopercent.o ABSOLUTE
    ../clib/printf.c                         0x00000000   Number         0  _printf_fp_infnan.o ABSOLUTE
    ../clib/printf.c                         0x00000000   Number         0  __printf_flags.o ABSOLUTE
    ../clib/printf.c                         0x00000000   Number         0  __printf_flags_ss_wp.o ABSOLUTE
    ../clib/printf.c                         0x00000000   Number         0  __printf_ss.o ABSOLUTE
    ../clib/printf.c                         0x00000000   Number         0  __printf_flags_wp.o ABSOLUTE
    ../clib/printf_percent.s                 0x00000000   Number         0  _printf_f.o ABSOLUTE
    ../clib/printf_percent.s                 0x00000000   Number         0  _printf_d.o ABSOLUTE
    ../clib/printf_percent.s                 0x00000000   Number         0  _printf_percent_end.o ABSOLUTE
    ../clib/printf_percent.s                 0x00000000   Number         0  _printf_percent.o ABSOLUTE
    ../clib/signal.c                         0x00000000   Number         0  defsig_rtmem_inner.o ABSOLUTE
    ../clib/signal.c                         0x00000000   Number         0  defsig_exit.o ABSOLUTE
    ../clib/signal.c                         0x00000000   Number         0  defsig_rtmem_formal.o ABSOLUTE
    ../clib/signal.c                         0x00000000   Number         0  defsig_rtmem_outer.o ABSOLUTE
    ../clib/signal.c                         0x00000000   Number         0  defsig_other.o ABSOLUTE
    ../clib/signal.c                         0x00000000   Number         0  defsig_segv_inner.o ABSOLUTE
    ../clib/signal.c                         0x00000000   Number         0  defsig_cppl_inner.o ABSOLUTE
    ../clib/signal.c                         0x00000000   Number         0  defsig_pvfn_inner.o ABSOLUTE
    ../clib/signal.c                         0x00000000   Number         0  defsig_stak_inner.o ABSOLUTE
    ../clib/signal.c                         0x00000000   Number         0  defsig_rtred_inner.o ABSOLUTE
    ../clib/signal.c                         0x00000000   Number         0  defsig_fpe_inner.o ABSOLUTE
    ../clib/signal.c                         0x00000000   Number         0  defsig_abrt_inner.o ABSOLUTE
    ../clib/signal.c                         0x00000000   Number         0  defsig_general.o ABSOLUTE
    ../clib/signal.c                         0x00000000   Number         0  __raise.o ABSOLUTE
    ../clib/signal.s                         0x00000000   Number         0  defsig.o ABSOLUTE
    ../clib/stdlib.c                         0x00000000   Number         0  exit.o ABSOLUTE
    ../fplib/d2f.s                           0x00000000   Number         0  d2f.o ABSOLUTE
    ../fplib/daddsub.s                       0x00000000   Number         0  daddsub_clz.o ABSOLUTE
    ../fplib/ddiv.s                          0x00000000   Number         0  ddiv.o ABSOLUTE
    ../fplib/dfix.s                          0x00000000   Number         0  dfix.o ABSOLUTE
    ../fplib/dfixu.s                         0x00000000   Number         0  dfixu.o ABSOLUTE
    ../fplib/dflt.s                          0x00000000   Number         0  dflt_clz.o ABSOLUTE
    ../fplib/dmul.s                          0x00000000   Number         0  dmul.o ABSOLUTE
    ../fplib/dnaninf.s                       0x00000000   Number         0  dnaninf.o ABSOLUTE
    ../fplib/dretinf.s                       0x00000000   Number         0  dretinf.o ABSOLUTE
    ../fplib/f2d.s                           0x00000000   Number         0  f2d.o ABSOLUTE
    ../fplib/faddsub.s                       0x00000000   Number         0  faddsub_clz.o ABSOLUTE
    ../fplib/ffixu.s                         0x00000000   Number         0  ffixu.o ABSOLUTE
    ../fplib/fnaninf.s                       0x00000000   Number         0  fnaninf.o ABSOLUTE
    ../fplib/fpinit.s                        0x00000000   Number         0  fpinit.o ABSOLUTE
    ../fplib/fretinf.s                       0x00000000   Number         0  fretinf.o ABSOLUTE
    ../fplib/istatus.s                       0x00000000   Number         0  istatus.o ABSOLUTE
    ../fplib/printf1.s                       0x00000000   Number         0  printf1.o ABSOLUTE
    ../fplib/usenofp.s                       0x00000000   Number         0  usenofp.o ABSOLUTE
    ../mathlib/fpclassify.c                  0x00000000   Number         0  fpclassify.o ABSOLUTE
    ..\Core\Src\adc.c                        0x00000000   Number         0  adc.o ABSOLUTE
    ..\Core\Src\dma.c                        0x00000000   Number         0  dma.o ABSOLUTE
    ..\Core\Src\gpio.c                       0x00000000   Number         0  gpio.o ABSOLUTE
    ..\Core\Src\main.c                       0x00000000   Number         0  main.o ABSOLUTE
    ..\Core\Src\stm32f1xx_hal_msp.c          0x00000000   Number         0  stm32f1xx_hal_msp.o ABSOLUTE
    ..\Core\Src\stm32f1xx_it.c               0x00000000   Number         0  stm32f1xx_it.o ABSOLUTE
    ..\Core\Src\system_stm32f1xx.c           0x00000000   Number         0  system_stm32f1xx.o ABSOLUTE
    ..\Core\Src\tim.c                        0x00000000   Number         0  tim.o ABSOLUTE
    ..\Drivers\STM32F1xx_HAL_Driver\Src\stm32f1xx_hal.c 0x00000000   Number         0  stm32f1xx_hal.o ABSOLUTE
    ..\Drivers\STM32F1xx_HAL_Driver\Src\stm32f1xx_hal_adc.c 0x00000000   Number         0  stm32f1xx_hal_adc.o ABSOLUTE
    ..\Drivers\STM32F1xx_HAL_Driver\Src\stm32f1xx_hal_adc_ex.c 0x00000000   Number         0  stm32f1xx_hal_adc_ex.o ABSOLUTE
    ..\Drivers\STM32F1xx_HAL_Driver\Src\stm32f1xx_hal_cortex.c 0x00000000   Number         0  stm32f1xx_hal_cortex.o ABSOLUTE
    ..\Drivers\STM32F1xx_HAL_Driver\Src\stm32f1xx_hal_dma.c 0x00000000   Number         0  stm32f1xx_hal_dma.o ABSOLUTE
    ..\Drivers\STM32F1xx_HAL_Driver\Src\stm32f1xx_hal_exti.c 0x00000000   Number         0  stm32f1xx_hal_exti.o ABSOLUTE
    ..\Drivers\STM32F1xx_HAL_Driver\Src\stm32f1xx_hal_flash.c 0x00000000   Number         0  stm32f1xx_hal_flash.o ABSOLUTE
    ..\Drivers\STM32F1xx_HAL_Driver\Src\stm32f1xx_hal_flash_ex.c 0x00000000   Number         0  stm32f1xx_hal_flash_ex.o ABSOLUTE
    ..\Drivers\STM32F1xx_HAL_Driver\Src\stm32f1xx_hal_gpio.c 0x00000000   Number         0  stm32f1xx_hal_gpio.o ABSOLUTE
    ..\Drivers\STM32F1xx_HAL_Driver\Src\stm32f1xx_hal_gpio_ex.c 0x00000000   Number         0  stm32f1xx_hal_gpio_ex.o ABSOLUTE
    ..\Drivers\STM32F1xx_HAL_Driver\Src\stm32f1xx_hal_pwr.c 0x00000000   Number         0  stm32f1xx_hal_pwr.o ABSOLUTE
    ..\Drivers\STM32F1xx_HAL_Driver\Src\stm32f1xx_hal_rcc.c 0x00000000   Number         0  stm32f1xx_hal_rcc.o ABSOLUTE
    ..\Drivers\STM32F1xx_HAL_Driver\Src\stm32f1xx_hal_rcc_ex.c 0x00000000   Number         0  stm32f1xx_hal_rcc_ex.o ABSOLUTE
    ..\Drivers\STM32F1xx_HAL_Driver\Src\stm32f1xx_hal_tim.c 0x00000000   Number         0  stm32f1xx_hal_tim.o ABSOLUTE
    ..\Drivers\STM32F1xx_HAL_Driver\Src\stm32f1xx_hal_tim_ex.c 0x00000000   Number         0  stm32f1xx_hal_tim_ex.o ABSOLUTE
    ..\\icode\\GUI\\gui.c                    0x00000000   Number         0  gui.o ABSOLUTE
    ..\\icode\\LCD8080\\lcd.c                0x00000000   Number         0  lcd.o ABSOLUTE
    ..\\icode\\OSC\\osc.c                    0x00000000   Number         0  osc.o ABSOLUTE
    ..\icode\GUI\gui.c                       0x00000000   Number         0  gui.o ABSOLUTE
    ..\icode\LCD8080\lcd.c                   0x00000000   Number         0  lcd.o ABSOLUTE
    ..\icode\OSC\osc.c                       0x00000000   Number         0  osc.o ABSOLUTE
    dc.s                                     0x00000000   Number         0  dc.o ABSOLUTE
    startup_stm32f103xe.s                    0x00000000   Number         0  startup_stm32f103xe.o ABSOLUTE
    RESET                                    0x08000000   Section      304  startup_stm32f103xe.o(RESET)
    !!!main                                  0x08000130   Section        8  __main.o(!!!main)
    !!!scatter                               0x08000138   Section       52  __scatter.o(!!!scatter)
    !!handler_copy                           0x0800016c   Section       26  __scatter_copy.o(!!handler_copy)
    !!handler_zi                             0x08000188   Section       28  __scatter_zi.o(!!handler_zi)
    .ARM.Collect$$_printf_percent$$00000000  0x080001a4   Section        0  _printf_percent.o(.ARM.Collect$$_printf_percent$$00000000)
    .ARM.Collect$$_printf_percent$$00000003  0x080001a4   Section        6  _printf_f.o(.ARM.Collect$$_printf_percent$$00000003)
    .ARM.Collect$$_printf_percent$$00000009  0x080001aa   Section        6  _printf_d.o(.ARM.Collect$$_printf_percent$$00000009)
    .ARM.Collect$$_printf_percent$$00000017  0x080001b0   Section        4  _printf_percent_end.o(.ARM.Collect$$_printf_percent$$00000017)
    .ARM.Collect$$libinit$$00000000          0x080001b4   Section        2  libinit.o(.ARM.Collect$$libinit$$00000000)
    .ARM.Collect$$libinit$$00000002          0x080001b6   Section        0  libinit2.o(.ARM.Collect$$libinit$$00000002)
    .ARM.Collect$$libinit$$00000004          0x080001b6   Section        0  libinit2.o(.ARM.Collect$$libinit$$00000004)
    .ARM.Collect$$libinit$$0000000A          0x080001b6   Section        0  libinit2.o(.ARM.Collect$$libinit$$0000000A)
    .ARM.Collect$$libinit$$0000000C          0x080001b6   Section        0  libinit2.o(.ARM.Collect$$libinit$$0000000C)
    .ARM.Collect$$libinit$$0000000E          0x080001b6   Section        0  libinit2.o(.ARM.Collect$$libinit$$0000000E)
    .ARM.Collect$$libinit$$0000000F          0x080001b6   Section        6  libinit2.o(.ARM.Collect$$libinit$$0000000F)
    .ARM.Collect$$libinit$$00000011          0x080001bc   Section        0  libinit2.o(.ARM.Collect$$libinit$$00000011)
    .ARM.Collect$$libinit$$00000013          0x080001bc   Section        0  libinit2.o(.ARM.Collect$$libinit$$00000013)
    .ARM.Collect$$libinit$$00000015          0x080001bc   Section        0  libinit2.o(.ARM.Collect$$libinit$$00000015)
    .ARM.Collect$$libinit$$00000016          0x080001bc   Section       10  libinit2.o(.ARM.Collect$$libinit$$00000016)
    .ARM.Collect$$libinit$$00000017          0x080001c6   Section        0  libinit2.o(.ARM.Collect$$libinit$$00000017)
    .ARM.Collect$$libinit$$00000019          0x080001c6   Section        0  libinit2.o(.ARM.Collect$$libinit$$00000019)
    .ARM.Collect$$libinit$$0000001B          0x080001c6   Section        0  libinit2.o(.ARM.Collect$$libinit$$0000001B)
    .ARM.Collect$$libinit$$0000001D          0x080001c6   Section        0  libinit2.o(.ARM.Collect$$libinit$$0000001D)
    .ARM.Collect$$libinit$$0000001F          0x080001c6   Section        0  libinit2.o(.ARM.Collect$$libinit$$0000001F)
    .ARM.Collect$$libinit$$00000021          0x080001c6   Section        0  libinit2.o(.ARM.Collect$$libinit$$00000021)
    .ARM.Collect$$libinit$$00000023          0x080001c6   Section        0  libinit2.o(.ARM.Collect$$libinit$$00000023)
    .ARM.Collect$$libinit$$00000025          0x080001c6   Section        0  libinit2.o(.ARM.Collect$$libinit$$00000025)
    .ARM.Collect$$libinit$$0000002C          0x080001c6   Section        0  libinit2.o(.ARM.Collect$$libinit$$0000002C)
    .ARM.Collect$$libinit$$0000002E          0x080001c6   Section        0  libinit2.o(.ARM.Collect$$libinit$$0000002E)
    .ARM.Collect$$libinit$$00000030          0x080001c6   Section        0  libinit2.o(.ARM.Collect$$libinit$$00000030)
    .ARM.Collect$$libinit$$00000032          0x080001c6   Section        0  libinit2.o(.ARM.Collect$$libinit$$00000032)
    .ARM.Collect$$libinit$$00000033          0x080001c6   Section        2  libinit2.o(.ARM.Collect$$libinit$$00000033)
    .ARM.Collect$$libshutdown$$00000000      0x080001c8   Section        2  libshutdown.o(.ARM.Collect$$libshutdown$$00000000)
    .ARM.Collect$$libshutdown$$00000003      0x080001ca   Section        0  libshutdown2.o(.ARM.Collect$$libshutdown$$00000003)
    .ARM.Collect$$libshutdown$$00000006      0x080001ca   Section        0  libshutdown2.o(.ARM.Collect$$libshutdown$$00000006)
    .ARM.Collect$$libshutdown$$00000009      0x080001ca   Section        0  libshutdown2.o(.ARM.Collect$$libshutdown$$00000009)
    .ARM.Collect$$libshutdown$$0000000B      0x080001ca   Section        0  libshutdown2.o(.ARM.Collect$$libshutdown$$0000000B)
    .ARM.Collect$$libshutdown$$0000000E      0x080001ca   Section        0  libshutdown2.o(.ARM.Collect$$libshutdown$$0000000E)
    .ARM.Collect$$libshutdown$$0000000F      0x080001ca   Section        2  libshutdown2.o(.ARM.Collect$$libshutdown$$0000000F)
    .ARM.Collect$$rtentry$$00000000          0x080001cc   Section        0  __rtentry.o(.ARM.Collect$$rtentry$$00000000)
    .ARM.Collect$$rtentry$$00000002          0x080001cc   Section        0  __rtentry2.o(.ARM.Collect$$rtentry$$00000002)
    .ARM.Collect$$rtentry$$00000004          0x080001cc   Section        6  __rtentry4.o(.ARM.Collect$$rtentry$$00000004)
    .ARM.Collect$$rtentry$$00000009          0x080001d2   Section        0  __rtentry2.o(.ARM.Collect$$rtentry$$00000009)
    .ARM.Collect$$rtentry$$0000000A          0x080001d2   Section        4  __rtentry2.o(.ARM.Collect$$rtentry$$0000000A)
    .ARM.Collect$$rtentry$$0000000C          0x080001d6   Section        0  __rtentry2.o(.ARM.Collect$$rtentry$$0000000C)
    .ARM.Collect$$rtentry$$0000000D          0x080001d6   Section        8  __rtentry2.o(.ARM.Collect$$rtentry$$0000000D)
    .ARM.Collect$$rtexit$$00000000           0x080001de   Section        2  rtexit.o(.ARM.Collect$$rtexit$$00000000)
    .ARM.Collect$$rtexit$$00000002           0x080001e0   Section        0  rtexit2.o(.ARM.Collect$$rtexit$$00000002)
    .ARM.Collect$$rtexit$$00000003           0x080001e0   Section        4  rtexit2.o(.ARM.Collect$$rtexit$$00000003)
    .ARM.Collect$$rtexit$$00000004           0x080001e4   Section        6  rtexit2.o(.ARM.Collect$$rtexit$$00000004)
    .text                                    0x080001ec   Section       64  startup_stm32f103xe.o(.text)
    .text                                    0x0800022c   Section        0  noretval__2sprintf.o(.text)
    .text                                    0x08000254   Section        0  _printf_dec.o(.text)
    .text                                    0x080002cc   Section        0  __printf_wp.o(.text)
    .text                                    0x080003da   Section       78  rt_memclr_w.o(.text)
    .text                                    0x08000428   Section        0  heapauxi.o(.text)
    .text                                    0x0800042e   Section        0  _printf_intcommon.o(.text)
    .text                                    0x080004e0   Section        0  _printf_fp_dec.o(.text)
    _fp_digits                               0x080004e3   Thumb Code   428  _printf_fp_dec.o(.text)
    .text                                    0x080008fc   Section        0  _printf_char_common.o(.text)
    _printf_input_char                       0x080008fd   Thumb Code    10  _printf_char_common.o(.text)
    .text                                    0x0800092c   Section        0  _sputc.o(.text)
    .text                                    0x08000938   Section        8  rt_locale_intlibspace.o(.text)
    .text                                    0x08000940   Section      138  lludiv10.o(.text)
    .text                                    0x080009cc   Section        0  _printf_fp_infnan.o(.text)
    .text                                    0x08000a4c   Section        0  bigflt0.o(.text)
    .text                                    0x08000b28   Section        8  libspace.o(.text)
    .text                                    0x08000b30   Section       74  sys_stackheap_outer.o(.text)
    .text                                    0x08000b7a   Section        0  exit.o(.text)
    .text                                    0x08000b88   Section      128  strcmpv7m.o(.text)
    .text                                    0x08000c08   Section        0  sys_exit.o(.text)
    .text                                    0x08000c14   Section        2  use_no_semi.o(.text)
    .text                                    0x08000c16   Section        0  indicate_semi.o(.text)
    CL$$btod_d2e                             0x08000c16   Section       62  btod.o(CL$$btod_d2e)
    CL$$btod_d2e_denorm_low                  0x08000c54   Section       70  btod.o(CL$$btod_d2e_denorm_low)
    CL$$btod_d2e_norm_op1                    0x08000c9a   Section       96  btod.o(CL$$btod_d2e_norm_op1)
    CL$$btod_div_common                      0x08000cfa   Section      824  btod.o(CL$$btod_div_common)
    CL$$btod_e2e                             0x08001032   Section      198  btod.o(CL$$btod_e2e)
    CL$$btod_ediv                            0x080010f8   Section       40  btod.o(CL$$btod_ediv)
    CL$$btod_emul                            0x08001120   Section       40  btod.o(CL$$btod_emul)
    CL$$btod_mult_common                     0x08001148   Section      580  btod.o(CL$$btod_mult_common)
    i.ADC_ConversionStop_Disable             0x0800138c   Section        0  stm32f1xx_hal_adc.o(i.ADC_ConversionStop_Disable)
    i.ADC_DMAConvCplt                        0x080013e2   Section        0  stm32f1xx_hal_adc.o(i.ADC_DMAConvCplt)
    i.ADC_DMAError                           0x08001430   Section        0  stm32f1xx_hal_adc.o(i.ADC_DMAError)
    i.ADC_DMAHalfConvCplt                    0x0800144a   Section        0  stm32f1xx_hal_adc.o(i.ADC_DMAHalfConvCplt)
    i.ADC_Enable                             0x08001454   Section        0  stm32f1xx_hal_adc.o(i.ADC_Enable)
    i.BusFault_Handler                       0x080014d0   Section        0  stm32f1xx_it.o(i.BusFault_Handler)
    i.DMA1_Channel1_IRQHandler               0x080014d4   Section        0  stm32f1xx_it.o(i.DMA1_Channel1_IRQHandler)
    i.DMA_SetConfig                          0x080014e0   Section        0  stm32f1xx_hal_dma.o(i.DMA_SetConfig)
    DMA_SetConfig                            0x080014e1   Thumb Code    42  stm32f1xx_hal_dma.o(i.DMA_SetConfig)
    i.DebugMon_Handler                       0x0800150a   Section        0  stm32f1xx_it.o(i.DebugMon_Handler)
    i.EXTI0_IRQHandler                       0x0800150c   Section        0  stm32f1xx_it.o(i.EXTI0_IRQHandler)
    i.EXTI15_10_IRQHandler                   0x08001512   Section        0  stm32f1xx_it.o(i.EXTI15_10_IRQHandler)
    i.EXTI9_5_IRQHandler                     0x0800151a   Section        0  stm32f1xx_it.o(i.EXTI9_5_IRQHandler)
    i.Error_Handler                          0x08001520   Section        0  main.o(i.Error_Handler)
    i.HAL_ADCEx_Calibration_Start            0x08001524   Section        0  stm32f1xx_hal_adc_ex.o(i.HAL_ADCEx_Calibration_Start)
    i.HAL_ADC_ConfigChannel                  0x080015fc   Section        0  stm32f1xx_hal_adc.o(i.HAL_ADC_ConfigChannel)
    i.HAL_ADC_ConvCpltCallback               0x080016f8   Section        0  osc.o(i.HAL_ADC_ConvCpltCallback)
    i.HAL_ADC_ConvHalfCpltCallback           0x08001788   Section        0  stm32f1xx_hal_adc.o(i.HAL_ADC_ConvHalfCpltCallback)
    i.HAL_ADC_ErrorCallback                  0x0800178a   Section        0  stm32f1xx_hal_adc.o(i.HAL_ADC_ErrorCallback)
    i.HAL_ADC_Init                           0x0800178c   Section        0  stm32f1xx_hal_adc.o(i.HAL_ADC_Init)
    i.HAL_ADC_MspInit                        0x080018b0   Section        0  adc.o(i.HAL_ADC_MspInit)
    i.HAL_ADC_Start_DMA                      0x08001944   Section        0  stm32f1xx_hal_adc.o(i.HAL_ADC_Start_DMA)
    i.HAL_DMA_IRQHandler                     0x08001a50   Section        0  stm32f1xx_hal_dma.o(i.HAL_DMA_IRQHandler)
    i.HAL_DMA_Init                           0x08001c98   Section        0  stm32f1xx_hal_dma.o(i.HAL_DMA_Init)
    i.HAL_DMA_Start_IT                       0x08001d14   Section        0  stm32f1xx_hal_dma.o(i.HAL_DMA_Start_IT)
    i.HAL_Delay                              0x08001d84   Section        0  stm32f1xx_hal.o(i.HAL_Delay)
    i.HAL_GPIO_EXTI_Callback                 0x08001da8   Section        0  osc.o(i.HAL_GPIO_EXTI_Callback)
    i.HAL_GPIO_EXTI_IRQHandler               0x08001e84   Section        0  stm32f1xx_hal_gpio.o(i.HAL_GPIO_EXTI_IRQHandler)
    i.HAL_GPIO_Init                          0x08001e9c   Section        0  stm32f1xx_hal_gpio.o(i.HAL_GPIO_Init)
    i.HAL_GPIO_ReadPin                       0x08002094   Section        0  stm32f1xx_hal_gpio.o(i.HAL_GPIO_ReadPin)
    i.HAL_GPIO_WritePin                      0x0800209e   Section        0  stm32f1xx_hal_gpio.o(i.HAL_GPIO_WritePin)
    i.HAL_GetTick                            0x080020a8   Section        0  stm32f1xx_hal.o(i.HAL_GetTick)
    i.HAL_IncTick                            0x080020b4   Section        0  stm32f1xx_hal.o(i.HAL_IncTick)
    i.HAL_Init                               0x080020c4   Section        0  stm32f1xx_hal.o(i.HAL_Init)
    i.HAL_InitTick                           0x080020e8   Section        0  stm32f1xx_hal.o(i.HAL_InitTick)
    i.HAL_MspInit                            0x08002128   Section        0  stm32f1xx_hal_msp.o(i.HAL_MspInit)
    i.HAL_NVIC_EnableIRQ                     0x0800216c   Section        0  stm32f1xx_hal_cortex.o(i.HAL_NVIC_EnableIRQ)
    i.HAL_NVIC_SetPriority                   0x08002188   Section        0  stm32f1xx_hal_cortex.o(i.HAL_NVIC_SetPriority)
    i.HAL_NVIC_SetPriorityGrouping           0x080021c8   Section        0  stm32f1xx_hal_cortex.o(i.HAL_NVIC_SetPriorityGrouping)
    i.HAL_RCCEx_GetPeriphCLKFreq             0x080021ec   Section        0  stm32f1xx_hal_rcc_ex.o(i.HAL_RCCEx_GetPeriphCLKFreq)
    i.HAL_RCCEx_PeriphCLKConfig              0x080022c0   Section        0  stm32f1xx_hal_rcc_ex.o(i.HAL_RCCEx_PeriphCLKConfig)
    i.HAL_RCC_ClockConfig                    0x080023ac   Section        0  stm32f1xx_hal_rcc.o(i.HAL_RCC_ClockConfig)
    i.HAL_RCC_GetPCLK2Freq                   0x080024d8   Section        0  stm32f1xx_hal_rcc.o(i.HAL_RCC_GetPCLK2Freq)
    i.HAL_RCC_GetSysClockFreq                0x080024f8   Section        0  stm32f1xx_hal_rcc.o(i.HAL_RCC_GetSysClockFreq)
    i.HAL_RCC_OscConfig                      0x08002564   Section        0  stm32f1xx_hal_rcc.o(i.HAL_RCC_OscConfig)
    i.HAL_SYSTICK_Config                     0x08002884   Section        0  stm32f1xx_hal_cortex.o(i.HAL_SYSTICK_Config)
    i.HAL_TIMEx_MasterConfigSynchronization  0x080028ac   Section        0  stm32f1xx_hal_tim_ex.o(i.HAL_TIMEx_MasterConfigSynchronization)
    i.HAL_TIM_Base_Init                      0x08002928   Section        0  stm32f1xx_hal_tim.o(i.HAL_TIM_Base_Init)
    i.HAL_TIM_Base_MspDeInit                 0x08002984   Section        0  tim.o(i.HAL_TIM_Base_MspDeInit)
    i.HAL_TIM_Base_MspInit                   0x080029a0   Section        0  tim.o(i.HAL_TIM_Base_MspInit)
    i.HAL_TIM_Base_Start                     0x080029c8   Section        0  stm32f1xx_hal_tim.o(i.HAL_TIM_Base_Start)
    i.HAL_TIM_ConfigClockSource              0x08002a2c   Section        0  stm32f1xx_hal_tim.o(i.HAL_TIM_ConfigClockSource)
    i.HardFault_Handler                      0x08002b02   Section        0  stm32f1xx_it.o(i.HardFault_Handler)
    i.LCD_Clear                              0x08002b04   Section        0  lcd.o(i.LCD_Clear)
    i.LCD_Display_Dir                        0x08002b68   Section        0  lcd.o(i.LCD_Display_Dir)
    i.LCD_DrawLine                           0x08002c9c   Section        0  lcd.o(i.LCD_DrawLine)
    i.LCD_DrawPoint                          0x08002d38   Section        0  lcd.o(i.LCD_DrawPoint)
    i.LCD_DrawRectangle                      0x08002d54   Section        0  lcd.o(i.LCD_DrawRectangle)
    i.LCD_Fast_DrawPoint                     0x08002d8c   Section        0  lcd.o(i.LCD_Fast_DrawPoint)
    i.LCD_Init                               0x08002ec0   Section        0  lcd.o(i.LCD_Init)
    i.LCD_Pow                                0x08006474   Section        0  lcd.o(i.LCD_Pow)
    i.LCD_RD_DATA                            0x08006484   Section        0  lcd.o(i.LCD_RD_DATA)
    i.LCD_ReadReg                            0x080064f4   Section        0  lcd.o(i.LCD_ReadReg)
    i.LCD_SSD_BackLightSet                   0x08006504   Section        0  lcd.o(i.LCD_SSD_BackLightSet)
    i.LCD_Scan_Dir                           0x08006550   Section        0  lcd.o(i.LCD_Scan_Dir)
    i.LCD_SetCursor                          0x08006754   Section        0  lcd.o(i.LCD_SetCursor)
    i.LCD_ShowChar                           0x0800689c   Section        0  lcd.o(i.LCD_ShowChar)
    i.LCD_ShowNum                            0x08006980   Section        0  lcd.o(i.LCD_ShowNum)
    i.LCD_ShowString                         0x080069f6   Section        0  lcd.o(i.LCD_ShowString)
    i.LCD_WR_DATA                            0x08006a4c   Section        0  lcd.o(i.LCD_WR_DATA)
    i.LCD_WR_REG                             0x08006a70   Section        0  lcd.o(i.LCD_WR_REG)
    i.LCD_WriteRAM_Prepare                   0x08006a94   Section        0  lcd.o(i.LCD_WriteRAM_Prepare)
    i.LCD_WriteReg                           0x08006aa0   Section        0  lcd.o(i.LCD_WriteReg)
    i.MX_ADC1_Init                           0x08006ab4   Section        0  adc.o(i.MX_ADC1_Init)
    i.MX_DMA_Init                            0x08006b00   Section        0  dma.o(i.MX_DMA_Init)
    i.MX_GPIO_Init                           0x08006b2c   Section        0  gpio.o(i.MX_GPIO_Init)
    i.MX_TIM3_Init                           0x08006c68   Section        0  tim.o(i.MX_TIM3_Init)
    i.MemManage_Handler                      0x08006cd0   Section        0  stm32f1xx_it.o(i.MemManage_Handler)
    i.NMI_Handler                            0x08006cd2   Section        0  stm32f1xx_it.o(i.NMI_Handler)
    i.OSC_Init                               0x08006cd4   Section        0  osc.o(i.OSC_Init)
    i.OSC_ShowInfo                           0x08006d20   Section        0  osc.o(i.OSC_ShowInfo)
    i.OSC_ShowWave                           0x08006f30   Section        0  osc.o(i.OSC_ShowWave)
    i.PendSV_Handler                         0x0800707c   Section        0  stm32f1xx_it.o(i.PendSV_Handler)
    i.SVC_Handler                            0x0800707e   Section        0  stm32f1xx_it.o(i.SVC_Handler)
    i.SysTick_Handler                        0x08007080   Section        0  stm32f1xx_it.o(i.SysTick_Handler)
    i.SystemClock_Config                     0x08007084   Section        0  main.o(i.SystemClock_Config)
    i.SystemInit                             0x080070fe   Section        0  system_stm32f1xx.o(i.SystemInit)
    i.TIM_Base_SetConfig                     0x08007100   Section        0  stm32f1xx_hal_tim.o(i.TIM_Base_SetConfig)
    i.TIM_ETR_SetConfig                      0x0800718c   Section        0  stm32f1xx_hal_tim.o(i.TIM_ETR_SetConfig)
    i.TIM_ITRx_SetConfig                     0x080071a0   Section        0  stm32f1xx_hal_tim.o(i.TIM_ITRx_SetConfig)
    TIM_ITRx_SetConfig                       0x080071a1   Thumb Code    16  stm32f1xx_hal_tim.o(i.TIM_ITRx_SetConfig)
    i.TIM_TI1_ConfigInputStage               0x080071b0   Section        0  stm32f1xx_hal_tim.o(i.TIM_TI1_ConfigInputStage)
    TIM_TI1_ConfigInputStage                 0x080071b1   Thumb Code    34  stm32f1xx_hal_tim.o(i.TIM_TI1_ConfigInputStage)
    i.TIM_TI2_ConfigInputStage               0x080071d2   Section        0  stm32f1xx_hal_tim.o(i.TIM_TI2_ConfigInputStage)
    TIM_TI2_ConfigInputStage                 0x080071d3   Thumb Code    36  stm32f1xx_hal_tim.o(i.TIM_TI2_ConfigInputStage)
    i.UsageFault_Handler                     0x080071f6   Section        0  stm32f1xx_it.o(i.UsageFault_Handler)
    i.__ARM_fpclassify                       0x080071f8   Section        0  fpclassify.o(i.__ARM_fpclassify)
    i.__NVIC_SetPriority                     0x08007220   Section        0  stm32f1xx_hal_cortex.o(i.__NVIC_SetPriority)
    __NVIC_SetPriority                       0x08007221   Thumb Code    32  stm32f1xx_hal_cortex.o(i.__NVIC_SetPriority)
    i._is_digit                              0x08007240   Section        0  __printf_wp.o(i._is_digit)
    i.drawLineWithColor                      0x08007250   Section        0  gui.o(i.drawLineWithColor)
    i.drawNetwork                            0x08007264   Section        0  gui.o(i.drawNetwork)
    i.drawStringWithColor                    0x08007308   Section        0  gui.o(i.drawStringWithColor)
    i.main                                   0x08007324   Section        0  main.o(i.main)
    i.setAdcFrequency                        0x08007350   Section        0  osc.o(i.setAdcFrequency)
    i.setBackGroundColor                     0x080073a0   Section        0  gui.o(i.setBackGroundColor)
    i.setBackGroundText                      0x080073c8   Section        0  gui.o(i.setBackGroundText)
    i.setWaveEnlarge                         0x08007418   Section        0  osc.o(i.setWaveEnlarge)
    i.setWaveOffset                          0x08007458   Section        0  osc.o(i.setWaveOffset)
    i.updateDifVoMaxAndMin                   0x08007504   Section        0  osc.o(i.updateDifVoMaxAndMin)
    i.updateWaveFrequency                    0x08007588   Section        0  osc.o(i.updateWaveFrequency)
    locale$$code                             0x08007618   Section       44  lc_numeric_c.o(locale$$code)
    x$fpl$d2f                                0x08007644   Section       98  d2f.o(x$fpl$d2f)
    x$fpl$dadd                               0x080076a8   Section      336  daddsub_clz.o(x$fpl$dadd)
    _dadd1                                   0x080076b9   Thumb Code     0  daddsub_clz.o(x$fpl$dadd)
    x$fpl$ddiv                               0x080077f8   Section      688  ddiv.o(x$fpl$ddiv)
    ddiv_entry                               0x080077ff   Thumb Code     0  ddiv.o(x$fpl$ddiv)
    x$fpl$dfix                               0x08007aa8   Section       94  dfix.o(x$fpl$dfix)
    x$fpl$dfixu                              0x08007b08   Section       90  dfixu.o(x$fpl$dfixu)
    x$fpl$dflt                               0x08007b62   Section       46  dflt_clz.o(x$fpl$dflt)
    x$fpl$dfltu                              0x08007b90   Section       38  dflt_clz.o(x$fpl$dfltu)
    x$fpl$dmul                               0x08007bb8   Section      340  dmul.o(x$fpl$dmul)
    x$fpl$dnaninf                            0x08007d0c   Section      156  dnaninf.o(x$fpl$dnaninf)
    x$fpl$dretinf                            0x08007da8   Section       12  dretinf.o(x$fpl$dretinf)
    x$fpl$dsub                               0x08007db4   Section      468  daddsub_clz.o(x$fpl$dsub)
    _dsub1                                   0x08007dc5   Thumb Code     0  daddsub_clz.o(x$fpl$dsub)
    x$fpl$f2d                                0x08007f88   Section       86  f2d.o(x$fpl$f2d)
    x$fpl$fadd                               0x08007fe0   Section      196  faddsub_clz.o(x$fpl$fadd)
    _fadd1                                   0x08007fef   Thumb Code     0  faddsub_clz.o(x$fpl$fadd)
    x$fpl$ffixu                              0x080080a4   Section       62  ffixu.o(x$fpl$ffixu)
    x$fpl$fnaninf                            0x080080e2   Section      140  fnaninf.o(x$fpl$fnaninf)
    x$fpl$fretinf                            0x0800816e   Section       10  fretinf.o(x$fpl$fretinf)
    x$fpl$fsub                               0x08008178   Section      234  faddsub_clz.o(x$fpl$fsub)
    _fsub1                                   0x08008187   Thumb Code     0  faddsub_clz.o(x$fpl$fsub)
    x$fpl$printf1                            0x08008262   Section        4  printf1.o(x$fpl$printf1)
    .constdata                               0x08008266   Section       16  system_stm32f1xx.o(.constdata)
    x$fpl$usenofp                            0x08008266   Section        0  usenofp.o(x$fpl$usenofp)
    .constdata                               0x08008276   Section        8  system_stm32f1xx.o(.constdata)
    .constdata                               0x0800827e   Section    18240  lcd.o(.constdata)
    .constdata                               0x0800c9c0   Section      148  bigflt0.o(.constdata)
    tenpwrs_x                                0x0800c9c0   Data          60  bigflt0.o(.constdata)
    tenpwrs_i                                0x0800c9fc   Data          64  bigflt0.o(.constdata)
    locale$$data                             0x0800ca74   Section       28  lc_numeric_c.o(locale$$data)
    __lcnum_c_name                           0x0800ca78   Data           2  lc_numeric_c.o(locale$$data)
    __lcnum_c_start                          0x0800ca80   Data           0  lc_numeric_c.o(locale$$data)
    __lcnum_c_point                          0x0800ca8c   Data           0  lc_numeric_c.o(locale$$data)
    __lcnum_c_thousands                      0x0800ca8e   Data           0  lc_numeric_c.o(locale$$data)
    __lcnum_c_grouping                       0x0800ca8f   Data           0  lc_numeric_c.o(locale$$data)
    __lcnum_c_end                            0x0800ca90   Data           0  lc_numeric_c.o(locale$$data)
    .data                                    0x20000000   Section       12  stm32f1xx_hal.o(.data)
    .data                                    0x2000000c   Section        4  system_stm32f1xx.o(.data)
    .data                                    0x20000010   Section        4  lcd.o(.data)
    .data                                    0x20000014   Section       44  osc.o(.data)
    n                                        0x20000026   Data           2  osc.o(.data)
    n                                        0x20000028   Data           2  osc.o(.data)
    temp                                     0x2000003c   Data           4  osc.o(.data)
    .bss                                     0x20000040   Section      116  adc.o(.bss)
    .bss                                     0x200000b4   Section       72  tim.o(.bss)
    .bss                                     0x200000fc   Section       14  lcd.o(.bss)
    .bss                                     0x2000010a   Section     4210  osc.o(.bss)
    .bss                                     0x2000117c   Section       96  libspace.o(.bss)
    HEAP                                     0x200011e0   Section      512  startup_stm32f103xe.o(HEAP)
    Heap_Mem                                 0x200011e0   Data         512  startup_stm32f103xe.o(HEAP)
    STACK                                    0x200013e0   Section     1024  startup_stm32f103xe.o(STACK)
    Stack_Mem                                0x200013e0   Data        1024  startup_stm32f103xe.o(STACK)
    __initial_sp                             0x200017e0   Data           0  startup_stm32f103xe.o(STACK)

    Global Symbols

    Symbol Name                              Value     Ov Type        Size  Object(Section)

    BuildAttributes$$THM_ISAv4$P$D$K$B$S$PE$A:L22UL41UL21$X:L11$S22US41US21$IEEE1$IW$USESV6$~STKCKD$USESV7$~SHL$OTIME$ROPI$IEEEJ$EBA8$UX$STANDARDLIB$REQ8$PRES8$EABIv2 0x00000000   Number         0  anon$$obj.o ABSOLUTE
    __ARM_use_no_argv                        0x00000000   Number         0  main.o ABSOLUTE
    _printf_flags                            0x00000000   Number         0  printf_stubs.o ABSOLUTE
    _printf_return_value                     0x00000000   Number         0  printf_stubs.o ABSOLUTE
    _printf_sizespec                         0x00000000   Number         0  printf_stubs.o ABSOLUTE
    _printf_widthprec                        0x00000000   Number         0  printf_stubs.o ABSOLUTE
    __ARM_exceptions_init                     - Undefined Weak Reference
    __alloca_initialize                       - Undefined Weak Reference
    __arm_preinit_                            - Undefined Weak Reference
    __cpp_initialize__aeabi_                  - Undefined Weak Reference
    __cxa_finalize                            - Undefined Weak Reference
    __sigvec_lookup                           - Undefined Weak Reference
    _atexit_init                              - Undefined Weak Reference
    _call_atexit_fns                          - Undefined Weak Reference
    _clock_init                               - Undefined Weak Reference
    _fp_trap_init                             - Undefined Weak Reference
    _fp_trap_shutdown                         - Undefined Weak Reference
    _get_lc_collate                           - Undefined Weak Reference
    _get_lc_ctype                             - Undefined Weak Reference
    _get_lc_monetary                          - Undefined Weak Reference
    _get_lc_time                              - Undefined Weak Reference
    _getenv_init                              - Undefined Weak Reference
    _handle_redirection                       - Undefined Weak Reference
    _init_alloc                               - Undefined Weak Reference
    _init_user_alloc                          - Undefined Weak Reference
    _initio                                   - Undefined Weak Reference
    _printf_post_padding                      - Undefined Weak Reference
    _printf_pre_padding                       - Undefined Weak Reference
    _printf_truncate_signed                   - Undefined Weak Reference
    _printf_truncate_unsigned                 - Undefined Weak Reference
    _rand_init                                - Undefined Weak Reference
    _signal_finish                            - Undefined Weak Reference
    _signal_init                              - Undefined Weak Reference
    _terminate_alloc                          - Undefined Weak Reference
    _terminate_user_alloc                     - Undefined Weak Reference
    _terminateio                              - Undefined Weak Reference
    __Vectors_Size                           0x00000130   Number         0  startup_stm32f103xe.o ABSOLUTE
    __Vectors                                0x08000000   Data           4  startup_stm32f103xe.o(RESET)
    __Vectors_End                            0x08000130   Data           0  startup_stm32f103xe.o(RESET)
    __main                                   0x08000131   Thumb Code     8  __main.o(!!!main)
    __scatterload                            0x08000139   Thumb Code     0  __scatter.o(!!!scatter)
    __scatterload_rt2                        0x08000139   Thumb Code    44  __scatter.o(!!!scatter)
    __scatterload_rt2_thumb_only             0x08000139   Thumb Code     0  __scatter.o(!!!scatter)
    __scatterload_null                       0x08000147   Thumb Code     0  __scatter.o(!!!scatter)
    __scatterload_copy                       0x0800016d   Thumb Code    26  __scatter_copy.o(!!handler_copy)
    __scatterload_zeroinit                   0x08000189   Thumb Code    28  __scatter_zi.o(!!handler_zi)
    _printf_f                                0x080001a5   Thumb Code     0  _printf_f.o(.ARM.Collect$$_printf_percent$$00000003)
    _printf_percent                          0x080001a5   Thumb Code     0  _printf_percent.o(.ARM.Collect$$_printf_percent$$00000000)
    _printf_d                                0x080001ab   Thumb Code     0  _printf_d.o(.ARM.Collect$$_printf_percent$$00000009)
    _printf_percent_end                      0x080001b1   Thumb Code     0  _printf_percent_end.o(.ARM.Collect$$_printf_percent$$00000017)
    __rt_lib_init                            0x080001b5   Thumb Code     0  libinit.o(.ARM.Collect$$libinit$$00000000)
    __rt_lib_init_fp_1                       0x080001b7   Thumb Code     0  libinit2.o(.ARM.Collect$$libinit$$00000002)
    __rt_lib_init_heap_1                     0x080001b7   Thumb Code     0  libinit2.o(.ARM.Collect$$libinit$$0000000A)
    __rt_lib_init_lc_common                  0x080001b7   Thumb Code     0  libinit2.o(.ARM.Collect$$libinit$$0000000F)
    __rt_lib_init_preinit_1                  0x080001b7   Thumb Code     0  libinit2.o(.ARM.Collect$$libinit$$00000004)
    __rt_lib_init_rand_1                     0x080001b7   Thumb Code     0  libinit2.o(.ARM.Collect$$libinit$$0000000E)
    __rt_lib_init_user_alloc_1               0x080001b7   Thumb Code     0  libinit2.o(.ARM.Collect$$libinit$$0000000C)
    __rt_lib_init_lc_collate_1               0x080001bd   Thumb Code     0  libinit2.o(.ARM.Collect$$libinit$$00000011)
    __rt_lib_init_lc_ctype_1                 0x080001bd   Thumb Code     0  libinit2.o(.ARM.Collect$$libinit$$00000013)
    __rt_lib_init_lc_monetary_1              0x080001bd   Thumb Code     0  libinit2.o(.ARM.Collect$$libinit$$00000015)
    __rt_lib_init_lc_numeric_2               0x080001bd   Thumb Code     0  libinit2.o(.ARM.Collect$$libinit$$00000016)
    __rt_lib_init_alloca_1                   0x080001c7   Thumb Code     0  libinit2.o(.ARM.Collect$$libinit$$0000002E)
    __rt_lib_init_argv_1                     0x080001c7   Thumb Code     0  libinit2.o(.ARM.Collect$$libinit$$0000002C)
    __rt_lib_init_atexit_1                   0x080001c7   Thumb Code     0  libinit2.o(.ARM.Collect$$libinit$$0000001B)
    __rt_lib_init_clock_1                    0x080001c7   Thumb Code     0  libinit2.o(.ARM.Collect$$libinit$$00000021)
    __rt_lib_init_cpp_1                      0x080001c7   Thumb Code     0  libinit2.o(.ARM.Collect$$libinit$$00000032)
    __rt_lib_init_exceptions_1               0x080001c7   Thumb Code     0  libinit2.o(.ARM.Collect$$libinit$$00000030)
    __rt_lib_init_fp_trap_1                  0x080001c7   Thumb Code     0  libinit2.o(.ARM.Collect$$libinit$$0000001F)
    __rt_lib_init_getenv_1                   0x080001c7   Thumb Code     0  libinit2.o(.ARM.Collect$$libinit$$00000023)
    __rt_lib_init_lc_numeric_1               0x080001c7   Thumb Code     0  libinit2.o(.ARM.Collect$$libinit$$00000017)
    __rt_lib_init_lc_time_1                  0x080001c7   Thumb Code     0  libinit2.o(.ARM.Collect$$libinit$$00000019)
    __rt_lib_init_return                     0x080001c7   Thumb Code     0  libinit2.o(.ARM.Collect$$libinit$$00000033)
    __rt_lib_init_signal_1                   0x080001c7   Thumb Code     0  libinit2.o(.ARM.Collect$$libinit$$0000001D)
    __rt_lib_init_stdio_1                    0x080001c7   Thumb Code     0  libinit2.o(.ARM.Collect$$libinit$$00000025)
    __rt_lib_shutdown                        0x080001c9   Thumb Code     0  libshutdown.o(.ARM.Collect$$libshutdown$$00000000)
    __rt_lib_shutdown_fp_trap_1              0x080001cb   Thumb Code     0  libshutdown2.o(.ARM.Collect$$libshutdown$$00000006)
    __rt_lib_shutdown_heap_1                 0x080001cb   Thumb Code     0  libshutdown2.o(.ARM.Collect$$libshutdown$$0000000E)
    __rt_lib_shutdown_return                 0x080001cb   Thumb Code     0  libshutdown2.o(.ARM.Collect$$libshutdown$$0000000F)
    __rt_lib_shutdown_signal_1               0x080001cb   Thumb Code     0  libshutdown2.o(.ARM.Collect$$libshutdown$$00000009)
    __rt_lib_shutdown_stdio_1                0x080001cb   Thumb Code     0  libshutdown2.o(.ARM.Collect$$libshutdown$$00000003)
    __rt_lib_shutdown_user_alloc_1           0x080001cb   Thumb Code     0  libshutdown2.o(.ARM.Collect$$libshutdown$$0000000B)
    __rt_entry                               0x080001cd   Thumb Code     0  __rtentry.o(.ARM.Collect$$rtentry$$00000000)
    __rt_entry_presh_1                       0x080001cd   Thumb Code     0  __rtentry2.o(.ARM.Collect$$rtentry$$00000002)
    __rt_entry_sh                            0x080001cd   Thumb Code     0  __rtentry4.o(.ARM.Collect$$rtentry$$00000004)
    __rt_entry_li                            0x080001d3   Thumb Code     0  __rtentry2.o(.ARM.Collect$$rtentry$$0000000A)
    __rt_entry_postsh_1                      0x080001d3   Thumb Code     0  __rtentry2.o(.ARM.Collect$$rtentry$$00000009)
    __rt_entry_main                          0x080001d7   Thumb Code     0  __rtentry2.o(.ARM.Collect$$rtentry$$0000000D)
    __rt_entry_postli_1                      0x080001d7   Thumb Code     0  __rtentry2.o(.ARM.Collect$$rtentry$$0000000C)
    __rt_exit                                0x080001df   Thumb Code     0  rtexit.o(.ARM.Collect$$rtexit$$00000000)
    __rt_exit_ls                             0x080001e1   Thumb Code     0  rtexit2.o(.ARM.Collect$$rtexit$$00000003)
    __rt_exit_prels_1                        0x080001e1   Thumb Code     0  rtexit2.o(.ARM.Collect$$rtexit$$00000002)
    __rt_exit_exit                           0x080001e5   Thumb Code     0  rtexit2.o(.ARM.Collect$$rtexit$$00000004)
    Reset_Handler                            0x080001ed   Thumb Code     8  startup_stm32f103xe.o(.text)
    ADC1_2_IRQHandler                        0x08000207   Thumb Code     0  startup_stm32f103xe.o(.text)
    ADC3_IRQHandler                          0x08000207   Thumb Code     0  startup_stm32f103xe.o(.text)
    CAN1_RX1_IRQHandler                      0x08000207   Thumb Code     0  startup_stm32f103xe.o(.text)
    CAN1_SCE_IRQHandler                      0x08000207   Thumb Code     0  startup_stm32f103xe.o(.text)
    DMA1_Channel2_IRQHandler                 0x08000207   Thumb Code     0  startup_stm32f103xe.o(.text)
    DMA1_Channel3_IRQHandler                 0x08000207   Thumb Code     0  startup_stm32f103xe.o(.text)
    DMA1_Channel4_IRQHandler                 0x08000207   Thumb Code     0  startup_stm32f103xe.o(.text)
    DMA1_Channel5_IRQHandler                 0x08000207   Thumb Code     0  startup_stm32f103xe.o(.text)
    DMA1_Channel6_IRQHandler                 0x08000207   Thumb Code     0  startup_stm32f103xe.o(.text)
    DMA1_Channel7_IRQHandler                 0x08000207   Thumb Code     0  startup_stm32f103xe.o(.text)
    DMA2_Channel1_IRQHandler                 0x08000207   Thumb Code     0  startup_stm32f103xe.o(.text)
    DMA2_Channel2_IRQHandler                 0x08000207   Thumb Code     0  startup_stm32f103xe.o(.text)
    DMA2_Channel3_IRQHandler                 0x08000207   Thumb Code     0  startup_stm32f103xe.o(.text)
    DMA2_Channel4_5_IRQHandler               0x08000207   Thumb Code     0  startup_stm32f103xe.o(.text)
    EXTI1_IRQHandler                         0x08000207   Thumb Code     0  startup_stm32f103xe.o(.text)
    EXTI2_IRQHandler                         0x08000207   Thumb Code     0  startup_stm32f103xe.o(.text)
    EXTI3_IRQHandler                         0x08000207   Thumb Code     0  startup_stm32f103xe.o(.text)
    EXTI4_IRQHandler                         0x08000207   Thumb Code     0  startup_stm32f103xe.o(.text)
    FLASH_IRQHandler                         0x08000207   Thumb Code     0  startup_stm32f103xe.o(.text)
    FSMC_IRQHandler                          0x08000207   Thumb Code     0  startup_stm32f103xe.o(.text)
    I2C1_ER_IRQHandler                       0x08000207   Thumb Code     0  startup_stm32f103xe.o(.text)
    I2C1_EV_IRQHandler                       0x08000207   Thumb Code     0  startup_stm32f103xe.o(.text)
    I2C2_ER_IRQHandler                       0x08000207   Thumb Code     0  startup_stm32f103xe.o(.text)
    I2C2_EV_IRQHandler                       0x08000207   Thumb Code     0  startup_stm32f103xe.o(.text)
    PVD_IRQHandler                           0x08000207   Thumb Code     0  startup_stm32f103xe.o(.text)
    RCC_IRQHandler                           0x08000207   Thumb Code     0  startup_stm32f103xe.o(.text)
    RTC_Alarm_IRQHandler                     0x08000207   Thumb Code     0  startup_stm32f103xe.o(.text)
    RTC_IRQHandler                           0x08000207   Thumb Code     0  startup_stm32f103xe.o(.text)
    SDIO_IRQHandler                          0x08000207   Thumb Code     0  startup_stm32f103xe.o(.text)
    SPI1_IRQHandler                          0x08000207   Thumb Code     0  startup_stm32f103xe.o(.text)
    SPI2_IRQHandler                          0x08000207   Thumb Code     0  startup_stm32f103xe.o(.text)
    SPI3_IRQHandler                          0x08000207   Thumb Code     0  startup_stm32f103xe.o(.text)
    TAMPER_IRQHandler                        0x08000207   Thumb Code     0  startup_stm32f103xe.o(.text)
    TIM1_BRK_IRQHandler                      0x08000207   Thumb Code     0  startup_stm32f103xe.o(.text)
    TIM1_CC_IRQHandler                       0x08000207   Thumb Code     0  startup_stm32f103xe.o(.text)
    TIM1_TRG_COM_IRQHandler                  0x08000207   Thumb Code     0  startup_stm32f103xe.o(.text)
    TIM1_UP_IRQHandler                       0x08000207   Thumb Code     0  startup_stm32f103xe.o(.text)
    TIM2_IRQHandler                          0x08000207   Thumb Code     0  startup_stm32f103xe.o(.text)
    TIM3_IRQHandler                          0x08000207   Thumb Code     0  startup_stm32f103xe.o(.text)
    TIM4_IRQHandler                          0x08000207   Thumb Code     0  startup_stm32f103xe.o(.text)
    TIM5_IRQHandler                          0x08000207   Thumb Code     0  startup_stm32f103xe.o(.text)
    TIM6_IRQHandler                          0x08000207   Thumb Code     0  startup_stm32f103xe.o(.text)
    TIM7_IRQHandler                          0x08000207   Thumb Code     0  startup_stm32f103xe.o(.text)
    TIM8_BRK_IRQHandler                      0x08000207   Thumb Code     0  startup_stm32f103xe.o(.text)
    TIM8_CC_IRQHandler                       0x08000207   Thumb Code     0  startup_stm32f103xe.o(.text)
    TIM8_TRG_COM_IRQHandler                  0x08000207   Thumb Code     0  startup_stm32f103xe.o(.text)
    TIM8_UP_IRQHandler                       0x08000207   Thumb Code     0  startup_stm32f103xe.o(.text)
    UART4_IRQHandler                         0x08000207   Thumb Code     0  startup_stm32f103xe.o(.text)
    UART5_IRQHandler                         0x08000207   Thumb Code     0  startup_stm32f103xe.o(.text)
    USART1_IRQHandler                        0x08000207   Thumb Code     0  startup_stm32f103xe.o(.text)
    USART2_IRQHandler                        0x08000207   Thumb Code     0  startup_stm32f103xe.o(.text)
    USART3_IRQHandler                        0x08000207   Thumb Code     0  startup_stm32f103xe.o(.text)
    USBWakeUp_IRQHandler                     0x08000207   Thumb Code     0  startup_stm32f103xe.o(.text)
    USB_HP_CAN1_TX_IRQHandler                0x08000207   Thumb Code     0  startup_stm32f103xe.o(.text)
    USB_LP_CAN1_RX0_IRQHandler               0x08000207   Thumb Code     0  startup_stm32f103xe.o(.text)
    WWDG_IRQHandler                          0x08000207   Thumb Code     0  startup_stm32f103xe.o(.text)
    __user_initial_stackheap                 0x08000209   Thumb Code     0  startup_stm32f103xe.o(.text)
    __2sprintf                               0x0800022d   Thumb Code    34  noretval__2sprintf.o(.text)
    _printf_int_dec                          0x08000255   Thumb Code   104  _printf_dec.o(.text)
    __printf                                 0x080002cd   Thumb Code   270  __printf_wp.o(.text)
    __aeabi_memclr4                          0x080003db   Thumb Code     0  rt_memclr_w.o(.text)
    __aeabi_memclr8                          0x080003db   Thumb Code     0  rt_memclr_w.o(.text)
    __rt_memclr_w                            0x080003db   Thumb Code    78  rt_memclr_w.o(.text)
    _memset_w                                0x080003df   Thumb Code     0  rt_memclr_w.o(.text)
    __use_two_region_memory                  0x08000429   Thumb Code     2  heapauxi.o(.text)
    __rt_heap_escrow$2region                 0x0800042b   Thumb Code     2  heapauxi.o(.text)
    __rt_heap_expand$2region                 0x0800042d   Thumb Code     2  heapauxi.o(.text)
    _printf_int_common                       0x0800042f   Thumb Code   178  _printf_intcommon.o(.text)
    __lib_sel_fp_printf                      0x080004e1   Thumb Code     2  _printf_fp_dec.o(.text)
    _printf_fp_dec_real                      0x0800068f   Thumb Code   620  _printf_fp_dec.o(.text)
    _printf_char_common                      0x08000907   Thumb Code    32  _printf_char_common.o(.text)
    _sputc                                   0x0800092d   Thumb Code    10  _sputc.o(.text)
    __rt_locale                              0x08000939   Thumb Code     8  rt_locale_intlibspace.o(.text)
    _ll_udiv10                               0x08000941   Thumb Code   138  lludiv10.o(.text)
    _printf_fp_infnan                        0x080009cd   Thumb Code   112  _printf_fp_infnan.o(.text)
    _btod_etento                             0x08000a4d   Thumb Code   216  bigflt0.o(.text)
    __user_libspace                          0x08000b29   Thumb Code     8  libspace.o(.text)
    __user_perproc_libspace                  0x08000b29   Thumb Code     0  libspace.o(.text)
    __user_perthread_libspace                0x08000b29   Thumb Code     0  libspace.o(.text)
    __user_setup_stackheap                   0x08000b31   Thumb Code    74  sys_stackheap_outer.o(.text)
    exit                                     0x08000b7b   Thumb Code    12  exit.o(.text)
    strcmp                                   0x08000b89   Thumb Code   128  strcmpv7m.o(.text)
    _sys_exit                                0x08000c09   Thumb Code     8  sys_exit.o(.text)
    __I$use$semihosting                      0x08000c15   Thumb Code     0  use_no_semi.o(.text)
    __use_no_semihosting_swi                 0x08000c15   Thumb Code     2  use_no_semi.o(.text)
    __semihosting_library_function           0x08000c17   Thumb Code     0  indicate_semi.o(.text)
    _btod_d2e                                0x08000c17   Thumb Code    62  btod.o(CL$$btod_d2e)
    _d2e_denorm_low                          0x08000c55   Thumb Code    70  btod.o(CL$$btod_d2e_denorm_low)
    _d2e_norm_op1                            0x08000c9b   Thumb Code    96  btod.o(CL$$btod_d2e_norm_op1)
    __btod_div_common                        0x08000cfb   Thumb Code   696  btod.o(CL$$btod_div_common)
    _e2e                                     0x08001033   Thumb Code   198  btod.o(CL$$btod_e2e)
    _btod_ediv                               0x080010f9   Thumb Code    40  btod.o(CL$$btod_ediv)
    _btod_emul                               0x08001121   Thumb Code    40  btod.o(CL$$btod_emul)
    __btod_mult_common                       0x08001149   Thumb Code   580  btod.o(CL$$btod_mult_common)
    ADC_ConversionStop_Disable               0x0800138d   Thumb Code    86  stm32f1xx_hal_adc.o(i.ADC_ConversionStop_Disable)
    ADC_DMAConvCplt                          0x080013e3   Thumb Code    78  stm32f1xx_hal_adc.o(i.ADC_DMAConvCplt)
    ADC_DMAError                             0x08001431   Thumb Code    26  stm32f1xx_hal_adc.o(i.ADC_DMAError)
    ADC_DMAHalfConvCplt                      0x0800144b   Thumb Code    10  stm32f1xx_hal_adc.o(i.ADC_DMAHalfConvCplt)
    ADC_Enable                               0x08001455   Thumb Code   114  stm32f1xx_hal_adc.o(i.ADC_Enable)
    BusFault_Handler                         0x080014d1   Thumb Code     2  stm32f1xx_it.o(i.BusFault_Handler)
    DMA1_Channel1_IRQHandler                 0x080014d5   Thumb Code     6  stm32f1xx_it.o(i.DMA1_Channel1_IRQHandler)
    DebugMon_Handler                         0x0800150b   Thumb Code     2  stm32f1xx_it.o(i.DebugMon_Handler)
    EXTI0_IRQHandler                         0x0800150d   Thumb Code     6  stm32f1xx_it.o(i.EXTI0_IRQHandler)
    EXTI15_10_IRQHandler                     0x08001513   Thumb Code     8  stm32f1xx_it.o(i.EXTI15_10_IRQHandler)
    EXTI9_5_IRQHandler                       0x0800151b   Thumb Code     6  stm32f1xx_it.o(i.EXTI9_5_IRQHandler)
    Error_Handler                            0x08001521   Thumb Code     4  main.o(i.Error_Handler)
    HAL_ADCEx_Calibration_Start              0x08001525   Thumb Code   210  stm32f1xx_hal_adc_ex.o(i.HAL_ADCEx_Calibration_Start)
    HAL_ADC_ConfigChannel                    0x080015fd   Thumb Code   240  stm32f1xx_hal_adc.o(i.HAL_ADC_ConfigChannel)
    HAL_ADC_ConvCpltCallback                 0x080016f9   Thumb Code   106  osc.o(i.HAL_ADC_ConvCpltCallback)
    HAL_ADC_ConvHalfCpltCallback             0x08001789   Thumb Code     2  stm32f1xx_hal_adc.o(i.HAL_ADC_ConvHalfCpltCallback)
    HAL_ADC_ErrorCallback                    0x0800178b   Thumb Code     2  stm32f1xx_hal_adc.o(i.HAL_ADC_ErrorCallback)
    HAL_ADC_Init                             0x0800178d   Thumb Code   276  stm32f1xx_hal_adc.o(i.HAL_ADC_Init)
    HAL_ADC_MspInit                          0x080018b1   Thumb Code   126  adc.o(i.HAL_ADC_MspInit)
    HAL_ADC_Start_DMA                        0x08001945   Thumb Code   246  stm32f1xx_hal_adc.o(i.HAL_ADC_Start_DMA)
    HAL_DMA_IRQHandler                       0x08001a51   Thumb Code   552  stm32f1xx_hal_dma.o(i.HAL_DMA_IRQHandler)
    HAL_DMA_Init                             0x08001c99   Thumb Code   112  stm32f1xx_hal_dma.o(i.HAL_DMA_Init)
    HAL_DMA_Start_IT                         0x08001d15   Thumb Code   112  stm32f1xx_hal_dma.o(i.HAL_DMA_Start_IT)
    HAL_Delay                                0x08001d85   Thumb Code    32  stm32f1xx_hal.o(i.HAL_Delay)
    HAL_GPIO_EXTI_Callback                   0x08001da9   Thumb Code   208  osc.o(i.HAL_GPIO_EXTI_Callback)
    HAL_GPIO_EXTI_IRQHandler                 0x08001e85   Thumb Code    18  stm32f1xx_hal_gpio.o(i.HAL_GPIO_EXTI_IRQHandler)
    HAL_GPIO_Init                            0x08001e9d   Thumb Code   462  stm32f1xx_hal_gpio.o(i.HAL_GPIO_Init)
    HAL_GPIO_ReadPin                         0x08002095   Thumb Code    10  stm32f1xx_hal_gpio.o(i.HAL_GPIO_ReadPin)
    HAL_GPIO_WritePin                        0x0800209f   Thumb Code    10  stm32f1xx_hal_gpio.o(i.HAL_GPIO_WritePin)
    HAL_GetTick                              0x080020a9   Thumb Code     6  stm32f1xx_hal.o(i.HAL_GetTick)
    HAL_IncTick                              0x080020b5   Thumb Code    12  stm32f1xx_hal.o(i.HAL_IncTick)
    HAL_Init                                 0x080020c5   Thumb Code    32  stm32f1xx_hal.o(i.HAL_Init)
    HAL_InitTick                             0x080020e9   Thumb Code    54  stm32f1xx_hal.o(i.HAL_InitTick)
    HAL_MspInit                              0x08002129   Thumb Code    58  stm32f1xx_hal_msp.o(i.HAL_MspInit)
    HAL_NVIC_EnableIRQ                       0x0800216d   Thumb Code    26  stm32f1xx_hal_cortex.o(i.HAL_NVIC_EnableIRQ)
    HAL_NVIC_SetPriority                     0x08002189   Thumb Code    60  stm32f1xx_hal_cortex.o(i.HAL_NVIC_SetPriority)
    HAL_NVIC_SetPriorityGrouping             0x080021c9   Thumb Code    26  stm32f1xx_hal_cortex.o(i.HAL_NVIC_SetPriorityGrouping)
    HAL_RCCEx_GetPeriphCLKFreq               0x080021ed   Thumb Code   180  stm32f1xx_hal_rcc_ex.o(i.HAL_RCCEx_GetPeriphCLKFreq)
    HAL_RCCEx_PeriphCLKConfig                0x080022c1   Thumb Code   224  stm32f1xx_hal_rcc_ex.o(i.HAL_RCCEx_PeriphCLKConfig)
    HAL_RCC_ClockConfig                      0x080023ad   Thumb Code   280  stm32f1xx_hal_rcc.o(i.HAL_RCC_ClockConfig)
    HAL_RCC_GetPCLK2Freq                     0x080024d9   Thumb Code    20  stm32f1xx_hal_rcc.o(i.HAL_RCC_GetPCLK2Freq)
    HAL_RCC_GetSysClockFreq                  0x080024f9   Thumb Code    74  stm32f1xx_hal_rcc.o(i.HAL_RCC_GetSysClockFreq)
    HAL_RCC_OscConfig                        0x08002565   Thumb Code   778  stm32f1xx_hal_rcc.o(i.HAL_RCC_OscConfig)
    HAL_SYSTICK_Config                       0x08002885   Thumb Code    40  stm32f1xx_hal_cortex.o(i.HAL_SYSTICK_Config)
    HAL_TIMEx_MasterConfigSynchronization    0x080028ad   Thumb Code   104  stm32f1xx_hal_tim_ex.o(i.HAL_TIMEx_MasterConfigSynchronization)
    HAL_TIM_Base_Init                        0x08002929   Thumb Code    90  stm32f1xx_hal_tim.o(i.HAL_TIM_Base_Init)
    HAL_TIM_Base_MspDeInit                   0x08002985   Thumb Code    20  tim.o(i.HAL_TIM_Base_MspDeInit)
    HAL_TIM_Base_MspInit                     0x080029a1   Thumb Code    30  tim.o(i.HAL_TIM_Base_MspInit)
    HAL_TIM_Base_Start                       0x080029c9   Thumb Code    78  stm32f1xx_hal_tim.o(i.HAL_TIM_Base_Start)
    HAL_TIM_ConfigClockSource                0x08002a2d   Thumb Code   214  stm32f1xx_hal_tim.o(i.HAL_TIM_ConfigClockSource)
    HardFault_Handler                        0x08002b03   Thumb Code     2  stm32f1xx_it.o(i.HardFault_Handler)
    LCD_Clear                                0x08002b05   Thumb Code    96  lcd.o(i.LCD_Clear)
    LCD_Display_Dir                          0x08002b69   Thumb Code   304  lcd.o(i.LCD_Display_Dir)
    LCD_DrawLine                             0x08002c9d   Thumb Code   154  lcd.o(i.LCD_DrawLine)
    LCD_DrawPoint                            0x08002d39   Thumb Code    22  lcd.o(i.LCD_DrawPoint)
    LCD_DrawRectangle                        0x08002d55   Thumb Code    56  lcd.o(i.LCD_DrawRectangle)
    LCD_Fast_DrawPoint                       0x08002d8d   Thumb Code   294  lcd.o(i.LCD_Fast_DrawPoint)
    LCD_Init                                 0x08002ec1   Thumb Code 13742  lcd.o(i.LCD_Init)
    LCD_Pow                                  0x08006475   Thumb Code    16  lcd.o(i.LCD_Pow)
    LCD_RD_DATA                              0x08006485   Thumb Code   100  lcd.o(i.LCD_RD_DATA)
    LCD_ReadReg                              0x080064f5   Thumb Code    14  lcd.o(i.LCD_ReadReg)
    LCD_SSD_BackLightSet                     0x08006505   Thumb Code    70  lcd.o(i.LCD_SSD_BackLightSet)
    LCD_Scan_Dir                             0x08006551   Thumb Code   510  lcd.o(i.LCD_Scan_Dir)
    LCD_SetCursor                            0x08006755   Thumb Code   324  lcd.o(i.LCD_SetCursor)
    LCD_ShowChar                             0x0800689d   Thumb Code   202  lcd.o(i.LCD_ShowChar)
    LCD_ShowNum                              0x08006981   Thumb Code   118  lcd.o(i.LCD_ShowNum)
    LCD_ShowString                           0x080069f7   Thumb Code    84  lcd.o(i.LCD_ShowString)
    LCD_WR_DATA                              0x08006a4d   Thumb Code    26  lcd.o(i.LCD_WR_DATA)
    LCD_WR_REG                               0x08006a71   Thumb Code    26  lcd.o(i.LCD_WR_REG)
    LCD_WriteRAM_Prepare                     0x08006a95   Thumb Code     8  lcd.o(i.LCD_WriteRAM_Prepare)
    LCD_WriteReg                             0x08006aa1   Thumb Code    18  lcd.o(i.LCD_WriteReg)
    MX_ADC1_Init                             0x08006ab5   Thumb Code    68  adc.o(i.MX_ADC1_Init)
    MX_DMA_Init                              0x08006b01   Thumb Code    40  dma.o(i.MX_DMA_Init)
    MX_GPIO_Init                             0x08006b2d   Thumb Code   292  gpio.o(i.MX_GPIO_Init)
    MX_TIM3_Init                             0x08006c69   Thumb Code    96  tim.o(i.MX_TIM3_Init)
    MemManage_Handler                        0x08006cd1   Thumb Code     2  stm32f1xx_it.o(i.MemManage_Handler)
    NMI_Handler                              0x08006cd3   Thumb Code     2  stm32f1xx_it.o(i.NMI_Handler)
    OSC_Init                                 0x08006cd5   Thumb Code    58  osc.o(i.OSC_Init)
    OSC_ShowInfo                             0x08006d21   Thumb Code   432  osc.o(i.OSC_ShowInfo)
    OSC_ShowWave                             0x08006f31   Thumb Code   306  osc.o(i.OSC_ShowWave)
    PendSV_Handler                           0x0800707d   Thumb Code     2  stm32f1xx_it.o(i.PendSV_Handler)
    SVC_Handler                              0x0800707f   Thumb Code     2  stm32f1xx_it.o(i.SVC_Handler)
    SysTick_Handler                          0x08007081   Thumb Code     4  stm32f1xx_it.o(i.SysTick_Handler)
    SystemClock_Config                       0x08007085   Thumb Code   122  main.o(i.SystemClock_Config)
    SystemInit                               0x080070ff   Thumb Code     2  system_stm32f1xx.o(i.SystemInit)
    TIM_Base_SetConfig                       0x08007101   Thumb Code   120  stm32f1xx_hal_tim.o(i.TIM_Base_SetConfig)
    TIM_ETR_SetConfig                        0x0800718d   Thumb Code    20  stm32f1xx_hal_tim.o(i.TIM_ETR_SetConfig)
    UsageFault_Handler                       0x080071f7   Thumb Code     2  stm32f1xx_it.o(i.UsageFault_Handler)
    __ARM_fpclassify                         0x080071f9   Thumb Code    40  fpclassify.o(i.__ARM_fpclassify)
    _is_digit                                0x08007241   Thumb Code    14  __printf_wp.o(i._is_digit)
    drawLineWithColor                        0x08007251   Thumb Code    14  gui.o(i.drawLineWithColor)
    drawNetwork                              0x08007265   Thumb Code   156  gui.o(i.drawNetwork)
    drawStringWithColor                      0x08007309   Thumb Code    22  gui.o(i.drawStringWithColor)
    main                                     0x08007325   Thumb Code    40  main.o(i.main)
    setAdcFrequency                          0x08007351   Thumb Code    72  osc.o(i.setAdcFrequency)
    setBackGroundColor                       0x080073a1   Thumb Code    30  gui.o(i.setBackGroundColor)
    setBackGroundText                        0x080073c9   Thumb Code    36  gui.o(i.setBackGroundText)
    setWaveEnlarge                           0x08007419   Thumb Code    58  osc.o(i.setWaveEnlarge)
    setWaveOffset                            0x08007459   Thumb Code   158  osc.o(i.setWaveOffset)
    updateDifVoMaxAndMin                     0x08007505   Thumb Code   114  osc.o(i.updateDifVoMaxAndMin)
    updateWaveFrequency                      0x08007589   Thumb Code   126  osc.o(i.updateWaveFrequency)
    _get_lc_numeric                          0x08007619   Thumb Code    44  lc_numeric_c.o(locale$$code)
    __aeabi_d2f                              0x08007645   Thumb Code     0  d2f.o(x$fpl$d2f)
    _d2f                                     0x08007645   Thumb Code    98  d2f.o(x$fpl$d2f)
    __aeabi_dadd                             0x080076a9   Thumb Code     0  daddsub_clz.o(x$fpl$dadd)
    _dadd                                    0x080076a9   Thumb Code   332  daddsub_clz.o(x$fpl$dadd)
    __aeabi_ddiv                             0x080077f9   Thumb Code     0  ddiv.o(x$fpl$ddiv)
    _ddiv                                    0x080077f9   Thumb Code   552  ddiv.o(x$fpl$ddiv)
    __aeabi_d2iz                             0x08007aa9   Thumb Code     0  dfix.o(x$fpl$dfix)
    _dfix                                    0x08007aa9   Thumb Code    94  dfix.o(x$fpl$dfix)
    __aeabi_d2uiz                            0x08007b09   Thumb Code     0  dfixu.o(x$fpl$dfixu)
    _dfixu                                   0x08007b09   Thumb Code    90  dfixu.o(x$fpl$dfixu)
    __aeabi_i2d                              0x08007b63   Thumb Code     0  dflt_clz.o(x$fpl$dflt)
    _dflt                                    0x08007b63   Thumb Code    46  dflt_clz.o(x$fpl$dflt)
    __aeabi_ui2d                             0x08007b91   Thumb Code     0  dflt_clz.o(x$fpl$dfltu)
    _dfltu                                   0x08007b91   Thumb Code    38  dflt_clz.o(x$fpl$dfltu)
    __aeabi_dmul                             0x08007bb9   Thumb Code     0  dmul.o(x$fpl$dmul)
    _dmul                                    0x08007bb9   Thumb Code   332  dmul.o(x$fpl$dmul)
    __fpl_dnaninf                            0x08007d0d   Thumb Code   156  dnaninf.o(x$fpl$dnaninf)
    __fpl_dretinf                            0x08007da9   Thumb Code    12  dretinf.o(x$fpl$dretinf)
    __aeabi_dsub                             0x08007db5   Thumb Code     0  daddsub_clz.o(x$fpl$dsub)
    _dsub                                    0x08007db5   Thumb Code   464  daddsub_clz.o(x$fpl$dsub)
    __aeabi_f2d                              0x08007f89   Thumb Code     0  f2d.o(x$fpl$f2d)
    _f2d                                     0x08007f89   Thumb Code    86  f2d.o(x$fpl$f2d)
    __aeabi_fadd                             0x08007fe1   Thumb Code     0  faddsub_clz.o(x$fpl$fadd)
    _fadd                                    0x08007fe1   Thumb Code   196  faddsub_clz.o(x$fpl$fadd)
    __aeabi_f2uiz                            0x080080a5   Thumb Code     0  ffixu.o(x$fpl$ffixu)
    _ffixu                                   0x080080a5   Thumb Code    62  ffixu.o(x$fpl$ffixu)
    __fpl_fnaninf                            0x080080e3   Thumb Code   140  fnaninf.o(x$fpl$fnaninf)
    __fpl_fretinf                            0x0800816f   Thumb Code    10  fretinf.o(x$fpl$fretinf)
    __aeabi_fsub                             0x08008179   Thumb Code     0  faddsub_clz.o(x$fpl$fsub)
    _fsub                                    0x08008179   Thumb Code   234  faddsub_clz.o(x$fpl$fsub)
    _printf_fp_dec                           0x08008263   Thumb Code     4  printf1.o(x$fpl$printf1)
    AHBPrescTable                            0x08008266   Data          16  system_stm32f1xx.o(.constdata)
    __I$use$fp                               0x08008266   Number         0  usenofp.o(x$fpl$usenofp)
    APBPrescTable                            0x08008276   Data           8  system_stm32f1xx.o(.constdata)
    asc2_1206                                0x0800827e   Data        1140  lcd.o(.constdata)
    asc2_1608                                0x080086f2   Data        1520  lcd.o(.constdata)
    asc2_2412                                0x08008ce2   Data        3420  lcd.o(.constdata)
    asc2_3216                                0x08009a3e   Data       12160  lcd.o(.constdata)
    Region$$Table$$Base                      0x0800ca54   Number         0  anon$$obj.o(Region$$Table)
    Region$$Table$$Limit                     0x0800ca74   Number         0  anon$$obj.o(Region$$Table)
    uwTickFreq                               0x20000000   Data           1  stm32f1xx_hal.o(.data)
    uwTickPrio                               0x20000004   Data           4  stm32f1xx_hal.o(.data)
    uwTick                                   0x20000008   Data           4  stm32f1xx_hal.o(.data)
    SystemCoreClock                          0x2000000c   Data           4  system_stm32f1xx.o(.data)
    POINT_COLOR                              0x20000010   Data           2  lcd.o(.data)
    BACK_COLOR                               0x20000012   Data           2  lcd.o(.data)
    oscState                                 0x20000014   Data           1  osc.o(.data)
    enlarge                                  0x20000015   Data           1  osc.o(.data)
    offset                                   0x20000016   Data           1  osc.o(.data)
    keyNum                                   0x20000017   Data           1  osc.o(.data)
    keyChanged                               0x20000018   Data           1  osc.o(.data)
    numF                                     0x2000001a   Data           2  osc.o(.data)
    numOfCollect                             0x2000001c   Data           2  osc.o(.data)
    adcThreshold                             0x2000001e   Data           2  osc.o(.data)
    startPosition                            0x20000020   Data           2  osc.o(.data)
    endPosition                              0x20000022   Data           2  osc.o(.data)
    waveFrequency                            0x20000024   Data           2  osc.o(.data)
    ARR                                      0x2000002c   Data           4  osc.o(.data)
    maxVol                                   0x20000030   Data           4  osc.o(.data)
    minVol                                   0x20000034   Data           4  osc.o(.data)
    difVoMaxAndMin                           0x20000038   Data           4  osc.o(.data)
    hadc1                                    0x20000040   Data          48  adc.o(.bss)
    hdma_adc1                                0x20000070   Data          68  adc.o(.bss)
    htim3                                    0x200000b4   Data          72  tim.o(.bss)
    lcddev                                   0x200000fc   Data          14  lcd.o(.bss)
    newWave                                  0x2000010a   Data        1200  osc.o(.bss)
    oldWave                                  0x200005ba   Data        1200  osc.o(.bss)
    originalAdc                              0x20000a6a   Data        1800  osc.o(.bss)
    tempBuf                                  0x20001172   Data          10  osc.o(.bss)
    __libspace_start                         0x2000117c   Data          96  libspace.o(.bss)
    __temporary_stack_top$libspace           0x200011dc   Data           0  libspace.o(.bss)



==============================================================================

Memory Map of the image

  Image Entry point : 0x08000131

  Load Region LR_IROM1 (Base: 0x08000000, Size: 0x0000cad0, Max: 0x00040000, ABSOLUTE)

    Execution Region ER_IROM1 (Base: 0x08000000, Size: 0x0000ca90, Max: 0x00040000, ABSOLUTE)

    Base Addr    Size         Type   Attr      Idx    E Section Name        Object

    0x08000000   0x00000130   Data   RO            3    RESET               startup_stm32f103xe.o
    0x08000130   0x00000008   Code   RO         3097  * !!!main             c_w.l(__main.o)
    0x08000138   0x00000034   Code   RO         3358    !!!scatter          c_w.l(__scatter.o)
    0x0800016c   0x0000001a   Code   RO         3360    !!handler_copy      c_w.l(__scatter_copy.o)
    0x08000186   0x00000002   PAD
    0x08000188   0x0000001c   Code   RO         3362    !!handler_zi        c_w.l(__scatter_zi.o)
    0x080001a4   0x00000000   Code   RO         3092    .ARM.Collect$$_printf_percent$$00000000  c_w.l(_printf_percent.o)
    0x080001a4   0x00000006   Code   RO         3091    .ARM.Collect$$_printf_percent$$00000003  c_w.l(_printf_f.o)
    0x080001aa   0x00000006   Code   RO         3090    .ARM.Collect$$_printf_percent$$00000009  c_w.l(_printf_d.o)
    0x080001b0   0x00000004   Code   RO         3150    .ARM.Collect$$_printf_percent$$00000017  c_w.l(_printf_percent_end.o)
    0x080001b4   0x00000002   Code   RO         3232    .ARM.Collect$$libinit$$00000000  c_w.l(libinit.o)
    0x080001b6   0x00000000   Code   RO         3234    .ARM.Collect$$libinit$$00000002  c_w.l(libinit2.o)
    0x080001b6   0x00000000   Code   RO         3236    .ARM.Collect$$libinit$$00000004  c_w.l(libinit2.o)
    0x080001b6   0x00000000   Code   RO         3239    .ARM.Collect$$libinit$$0000000A  c_w.l(libinit2.o)
    0x080001b6   0x00000000   Code   RO         3241    .ARM.Collect$$libinit$$0000000C  c_w.l(libinit2.o)
    0x080001b6   0x00000000   Code   RO         3243    .ARM.Collect$$libinit$$0000000E  c_w.l(libinit2.o)
    0x080001b6   0x00000006   Code   RO         3244    .ARM.Collect$$libinit$$0000000F  c_w.l(libinit2.o)
    0x080001bc   0x00000000   Code   RO         3246    .ARM.Collect$$libinit$$00000011  c_w.l(libinit2.o)
    0x080001bc   0x00000000   Code   RO         3248    .ARM.Collect$$libinit$$00000013  c_w.l(libinit2.o)
    0x080001bc   0x00000000   Code   RO         3250    .ARM.Collect$$libinit$$00000015  c_w.l(libinit2.o)
    0x080001bc   0x0000000a   Code   RO         3251    .ARM.Collect$$libinit$$00000016  c_w.l(libinit2.o)
    0x080001c6   0x00000000   Code   RO         3252    .ARM.Collect$$libinit$$00000017  c_w.l(libinit2.o)
    0x080001c6   0x00000000   Code   RO         3254    .ARM.Collect$$libinit$$00000019  c_w.l(libinit2.o)
    0x080001c6   0x00000000   Code   RO         3256    .ARM.Collect$$libinit$$0000001B  c_w.l(libinit2.o)
    0x080001c6   0x00000000   Code   RO         3258    .ARM.Collect$$libinit$$0000001D  c_w.l(libinit2.o)
    0x080001c6   0x00000000   Code   RO         3260    .ARM.Collect$$libinit$$0000001F  c_w.l(libinit2.o)
    0x080001c6   0x00000000   Code   RO         3262    .ARM.Collect$$libinit$$00000021  c_w.l(libinit2.o)
    0x080001c6   0x00000000   Code   RO         3264    .ARM.Collect$$libinit$$00000023  c_w.l(libinit2.o)
    0x080001c6   0x00000000   Code   RO         3266    .ARM.Collect$$libinit$$00000025  c_w.l(libinit2.o)
    0x080001c6   0x00000000   Code   RO         3270    .ARM.Collect$$libinit$$0000002C  c_w.l(libinit2.o)
    0x080001c6   0x00000000   Code   RO         3272    .ARM.Collect$$libinit$$0000002E  c_w.l(libinit2.o)
    0x080001c6   0x00000000   Code   RO         3274    .ARM.Collect$$libinit$$00000030  c_w.l(libinit2.o)
    0x080001c6   0x00000000   Code   RO         3276    .ARM.Collect$$libinit$$00000032  c_w.l(libinit2.o)
    0x080001c6   0x00000002   Code   RO         3277    .ARM.Collect$$libinit$$00000033  c_w.l(libinit2.o)
    0x080001c8   0x00000002   Code   RO         3307    .ARM.Collect$$libshutdown$$00000000  c_w.l(libshutdown.o)
    0x080001ca   0x00000000   Code   RO         3319    .ARM.Collect$$libshutdown$$00000003  c_w.l(libshutdown2.o)
    0x080001ca   0x00000000   Code   RO         3322    .ARM.Collect$$libshutdown$$00000006  c_w.l(libshutdown2.o)
    0x080001ca   0x00000000   Code   RO         3325    .ARM.Collect$$libshutdown$$00000009  c_w.l(libshutdown2.o)
    0x080001ca   0x00000000   Code   RO         3327    .ARM.Collect$$libshutdown$$0000000B  c_w.l(libshutdown2.o)
    0x080001ca   0x00000000   Code   RO         3330    .ARM.Collect$$libshutdown$$0000000E  c_w.l(libshutdown2.o)
    0x080001ca   0x00000002   Code   RO         3331    .ARM.Collect$$libshutdown$$0000000F  c_w.l(libshutdown2.o)
    0x080001cc   0x00000000   Code   RO         3141    .ARM.Collect$$rtentry$$00000000  c_w.l(__rtentry.o)
    0x080001cc   0x00000000   Code   RO         3161    .ARM.Collect$$rtentry$$00000002  c_w.l(__rtentry2.o)
    0x080001cc   0x00000006   Code   RO         3173    .ARM.Collect$$rtentry$$00000004  c_w.l(__rtentry4.o)
    0x080001d2   0x00000000   Code   RO         3163    .ARM.Collect$$rtentry$$00000009  c_w.l(__rtentry2.o)
    0x080001d2   0x00000004   Code   RO         3164    .ARM.Collect$$rtentry$$0000000A  c_w.l(__rtentry2.o)
    0x080001d6   0x00000000   Code   RO         3166    .ARM.Collect$$rtentry$$0000000C  c_w.l(__rtentry2.o)
    0x080001d6   0x00000008   Code   RO         3167    .ARM.Collect$$rtentry$$0000000D  c_w.l(__rtentry2.o)
    0x080001de   0x00000002   Code   RO         3278    .ARM.Collect$$rtexit$$00000000  c_w.l(rtexit.o)
    0x080001e0   0x00000000   Code   RO         3285    .ARM.Collect$$rtexit$$00000002  c_w.l(rtexit2.o)
    0x080001e0   0x00000004   Code   RO         3286    .ARM.Collect$$rtexit$$00000003  c_w.l(rtexit2.o)
    0x080001e4   0x00000006   Code   RO         3287    .ARM.Collect$$rtexit$$00000004  c_w.l(rtexit2.o)
    0x080001ea   0x00000002   PAD
    0x080001ec   0x00000040   Code   RO            4    .text               startup_stm32f103xe.o
    0x0800022c   0x00000028   Code   RO         3064    .text               c_w.l(noretval__2sprintf.o)
    0x08000254   0x00000078   Code   RO         3068    .text               c_w.l(_printf_dec.o)
    0x080002cc   0x0000010e   Code   RO         3078    .text               c_w.l(__printf_wp.o)
    0x080003da   0x0000004e   Code   RO         3093    .text               c_w.l(rt_memclr_w.o)
    0x08000428   0x00000006   Code   RO         3095    .text               c_w.l(heapauxi.o)
    0x0800042e   0x000000b2   Code   RO         3142    .text               c_w.l(_printf_intcommon.o)
    0x080004e0   0x0000041a   Code   RO         3144    .text               c_w.l(_printf_fp_dec.o)
    0x080008fa   0x00000002   PAD
    0x080008fc   0x00000030   Code   RO         3146    .text               c_w.l(_printf_char_common.o)
    0x0800092c   0x0000000a   Code   RO         3148    .text               c_w.l(_sputc.o)
    0x08000936   0x00000002   PAD
    0x08000938   0x00000008   Code   RO         3178    .text               c_w.l(rt_locale_intlibspace.o)
    0x08000940   0x0000008a   Code   RO         3180    .text               c_w.l(lludiv10.o)
    0x080009ca   0x00000002   PAD
    0x080009cc   0x00000080   Code   RO         3182    .text               c_w.l(_printf_fp_infnan.o)
    0x08000a4c   0x000000dc   Code   RO         3186    .text               c_w.l(bigflt0.o)
    0x08000b28   0x00000008   Code   RO         3218    .text               c_w.l(libspace.o)
    0x08000b30   0x0000004a   Code   RO         3221    .text               c_w.l(sys_stackheap_outer.o)
    0x08000b7a   0x0000000c   Code   RO         3223    .text               c_w.l(exit.o)
    0x08000b86   0x00000002   PAD
    0x08000b88   0x00000080   Code   RO         3225    .text               c_w.l(strcmpv7m.o)
    0x08000c08   0x0000000c   Code   RO         3297    .text               c_w.l(sys_exit.o)
    0x08000c14   0x00000002   Code   RO         3308    .text               c_w.l(use_no_semi.o)
    0x08000c16   0x00000000   Code   RO         3310    .text               c_w.l(indicate_semi.o)
    0x08000c16   0x0000003e   Code   RO         3189    CL$$btod_d2e        c_w.l(btod.o)
    0x08000c54   0x00000046   Code   RO         3191    CL$$btod_d2e_denorm_low  c_w.l(btod.o)
    0x08000c9a   0x00000060   Code   RO         3190    CL$$btod_d2e_norm_op1  c_w.l(btod.o)
    0x08000cfa   0x00000338   Code   RO         3199    CL$$btod_div_common  c_w.l(btod.o)
    0x08001032   0x000000c6   Code   RO         3196    CL$$btod_e2e        c_w.l(btod.o)
    0x080010f8   0x00000028   Code   RO         3193    CL$$btod_ediv       c_w.l(btod.o)
    0x08001120   0x00000028   Code   RO         3192    CL$$btod_emul       c_w.l(btod.o)
    0x08001148   0x00000244   Code   RO         3198    CL$$btod_mult_common  c_w.l(btod.o)
    0x0800138c   0x00000056   Code   RO          460    i.ADC_ConversionStop_Disable  stm32f1xx_hal_adc.o
    0x080013e2   0x0000004e   Code   RO          461    i.ADC_DMAConvCplt   stm32f1xx_hal_adc.o
    0x08001430   0x0000001a   Code   RO          462    i.ADC_DMAError      stm32f1xx_hal_adc.o
    0x0800144a   0x0000000a   Code   RO          463    i.ADC_DMAHalfConvCplt  stm32f1xx_hal_adc.o
    0x08001454   0x0000007c   Code   RO          464    i.ADC_Enable        stm32f1xx_hal_adc.o
    0x080014d0   0x00000002   Code   RO          300    i.BusFault_Handler  stm32f1xx_it.o
    0x080014d2   0x00000002   PAD
    0x080014d4   0x0000000c   Code   RO          301    i.DMA1_Channel1_IRQHandler  stm32f1xx_it.o
    0x080014e0   0x0000002a   Code   RO         1114    i.DMA_SetConfig     stm32f1xx_hal_dma.o
    0x0800150a   0x00000002   Code   RO          302    i.DebugMon_Handler  stm32f1xx_it.o
    0x0800150c   0x00000006   Code   RO          303    i.EXTI0_IRQHandler  stm32f1xx_it.o
    0x08001512   0x00000008   Code   RO          304    i.EXTI15_10_IRQHandler  stm32f1xx_it.o
    0x0800151a   0x00000006   Code   RO          305    i.EXTI9_5_IRQHandler  stm32f1xx_it.o
    0x08001520   0x00000004   Code   RO           13    i.Error_Handler     main.o
    0x08001524   0x000000d8   Code   RO          640    i.HAL_ADCEx_Calibration_Start  stm32f1xx_hal_adc_ex.o
    0x080015fc   0x000000fc   Code   RO          466    i.HAL_ADC_ConfigChannel  stm32f1xx_hal_adc.o
    0x080016f8   0x00000090   Code   RO         2976    i.HAL_ADC_ConvCpltCallback  osc.o
    0x08001788   0x00000002   Code   RO          468    i.HAL_ADC_ConvHalfCpltCallback  stm32f1xx_hal_adc.o
    0x0800178a   0x00000002   Code   RO          470    i.HAL_ADC_ErrorCallback  stm32f1xx_hal_adc.o
    0x0800178c   0x00000124   Code   RO          475    i.HAL_ADC_Init      stm32f1xx_hal_adc.o
    0x080018b0   0x00000094   Code   RO          193    i.HAL_ADC_MspInit   adc.o
    0x08001944   0x0000010c   Code   RO          482    i.HAL_ADC_Start_DMA  stm32f1xx_hal_adc.o
    0x08001a50   0x00000248   Code   RO         1120    i.HAL_DMA_IRQHandler  stm32f1xx_hal_dma.o
    0x08001c98   0x0000007c   Code   RO         1121    i.HAL_DMA_Init      stm32f1xx_hal_dma.o
    0x08001d14   0x00000070   Code   RO         1125    i.HAL_DMA_Start_IT  stm32f1xx_hal_dma.o
    0x08001d84   0x00000024   Code   RO          743    i.HAL_Delay         stm32f1xx_hal.o
    0x08001da8   0x000000dc   Code   RO         2977    i.HAL_GPIO_EXTI_Callback  osc.o
    0x08001e84   0x00000018   Code   RO         1050    i.HAL_GPIO_EXTI_IRQHandler  stm32f1xx_hal_gpio.o
    0x08001e9c   0x000001f8   Code   RO         1051    i.HAL_GPIO_Init     stm32f1xx_hal_gpio.o
    0x08002094   0x0000000a   Code   RO         1053    i.HAL_GPIO_ReadPin  stm32f1xx_hal_gpio.o
    0x0800209e   0x0000000a   Code   RO         1055    i.HAL_GPIO_WritePin  stm32f1xx_hal_gpio.o
    0x080020a8   0x0000000c   Code   RO          747    i.HAL_GetTick       stm32f1xx_hal.o
    0x080020b4   0x00000010   Code   RO          753    i.HAL_IncTick       stm32f1xx_hal.o
    0x080020c4   0x00000024   Code   RO          754    i.HAL_Init          stm32f1xx_hal.o
    0x080020e8   0x00000040   Code   RO          755    i.HAL_InitTick      stm32f1xx_hal.o
    0x08002128   0x00000044   Code   RO          400    i.HAL_MspInit       stm32f1xx_hal_msp.o
    0x0800216c   0x0000001a   Code   RO         1211    i.HAL_NVIC_EnableIRQ  stm32f1xx_hal_cortex.o
    0x08002186   0x00000002   PAD
    0x08002188   0x00000040   Code   RO         1217    i.HAL_NVIC_SetPriority  stm32f1xx_hal_cortex.o
    0x080021c8   0x00000024   Code   RO         1218    i.HAL_NVIC_SetPriorityGrouping  stm32f1xx_hal_cortex.o
    0x080021ec   0x000000d4   Code   RO         1013    i.HAL_RCCEx_GetPeriphCLKFreq  stm32f1xx_hal_rcc_ex.o
    0x080022c0   0x000000ec   Code   RO         1014    i.HAL_RCCEx_PeriphCLKConfig  stm32f1xx_hal_rcc_ex.o
    0x080023ac   0x0000012c   Code   RO          911    i.HAL_RCC_ClockConfig  stm32f1xx_hal_rcc.o
    0x080024d8   0x00000020   Code   RO          919    i.HAL_RCC_GetPCLK2Freq  stm32f1xx_hal_rcc.o
    0x080024f8   0x0000006c   Code   RO          920    i.HAL_RCC_GetSysClockFreq  stm32f1xx_hal_rcc.o
    0x08002564   0x00000320   Code   RO          923    i.HAL_RCC_OscConfig  stm32f1xx_hal_rcc.o
    0x08002884   0x00000028   Code   RO         1222    i.HAL_SYSTICK_Config  stm32f1xx_hal_cortex.o
    0x080028ac   0x0000007c   Code   RO         2436    i.HAL_TIMEx_MasterConfigSynchronization  stm32f1xx_hal_tim_ex.o
    0x08002928   0x0000005a   Code   RO         1713    i.HAL_TIM_Base_Init  stm32f1xx_hal_tim.o
    0x08002982   0x00000002   PAD
    0x08002984   0x0000001c   Code   RO          258    i.HAL_TIM_Base_MspDeInit  tim.o
    0x080029a0   0x00000028   Code   RO          259    i.HAL_TIM_Base_MspInit  tim.o
    0x080029c8   0x00000064   Code   RO         1716    i.HAL_TIM_Base_Start  stm32f1xx_hal_tim.o
    0x08002a2c   0x000000d6   Code   RO         1722    i.HAL_TIM_ConfigClockSource  stm32f1xx_hal_tim.o
    0x08002b02   0x00000002   Code   RO          306    i.HardFault_Handler  stm32f1xx_it.o
    0x08002b04   0x00000064   Code   RO         2723    i.LCD_Clear         lcd.o
    0x08002b68   0x00000134   Code   RO         2727    i.LCD_Display_Dir   lcd.o
    0x08002c9c   0x0000009a   Code   RO         2728    i.LCD_DrawLine      lcd.o
    0x08002d36   0x00000002   PAD
    0x08002d38   0x0000001c   Code   RO         2729    i.LCD_DrawPoint     lcd.o
    0x08002d54   0x00000038   Code   RO         2730    i.LCD_DrawRectangle  lcd.o
    0x08002d8c   0x00000134   Code   RO         2732    i.LCD_Fast_DrawPoint  lcd.o
    0x08002ec0   0x000035b4   Code   RO         2734    i.LCD_Init          lcd.o
    0x08006474   0x00000010   Code   RO         2735    i.LCD_Pow           lcd.o
    0x08006484   0x00000070   Code   RO         2736    i.LCD_RD_DATA       lcd.o
    0x080064f4   0x0000000e   Code   RO         2738    i.LCD_ReadReg       lcd.o
    0x08006502   0x00000002   PAD
    0x08006504   0x0000004c   Code   RO         2739    i.LCD_SSD_BackLightSet  lcd.o
    0x08006550   0x00000204   Code   RO         2740    i.LCD_Scan_Dir      lcd.o
    0x08006754   0x00000148   Code   RO         2741    i.LCD_SetCursor     lcd.o
    0x0800689c   0x000000e4   Code   RO         2743    i.LCD_ShowChar      lcd.o
    0x08006980   0x00000076   Code   RO         2744    i.LCD_ShowNum       lcd.o
    0x080069f6   0x00000054   Code   RO         2745    i.LCD_ShowString    lcd.o
    0x08006a4a   0x00000002   PAD
    0x08006a4c   0x00000024   Code   RO         2747    i.LCD_WR_DATA       lcd.o
    0x08006a70   0x00000024   Code   RO         2748    i.LCD_WR_REG        lcd.o
    0x08006a94   0x0000000c   Code   RO         2750    i.LCD_WriteRAM_Prepare  lcd.o
    0x08006aa0   0x00000012   Code   RO         2751    i.LCD_WriteReg      lcd.o
    0x08006ab2   0x00000002   PAD
    0x08006ab4   0x0000004c   Code   RO          194    i.MX_ADC1_Init      adc.o
    0x08006b00   0x0000002c   Code   RO          234    i.MX_DMA_Init       dma.o
    0x08006b2c   0x0000013c   Code   RO          168    i.MX_GPIO_Init      gpio.o
    0x08006c68   0x00000068   Code   RO          260    i.MX_TIM3_Init      tim.o
    0x08006cd0   0x00000002   Code   RO          307    i.MemManage_Handler  stm32f1xx_it.o
    0x08006cd2   0x00000002   Code   RO          308    i.NMI_Handler       stm32f1xx_it.o
    0x08006cd4   0x0000004c   Code   RO         2978    i.OSC_Init          osc.o
    0x08006d20   0x00000210   Code   RO         2979    i.OSC_ShowInfo      osc.o
    0x08006f30   0x0000014c   Code   RO         2980    i.OSC_ShowWave      osc.o
    0x0800707c   0x00000002   Code   RO          309    i.PendSV_Handler    stm32f1xx_it.o
    0x0800707e   0x00000002   Code   RO          310    i.SVC_Handler       stm32f1xx_it.o
    0x08007080   0x00000004   Code   RO          311    i.SysTick_Handler   stm32f1xx_it.o
    0x08007084   0x0000007a   Code   RO           14    i.SystemClock_Config  main.o
    0x080070fe   0x00000002   Code   RO         2685    i.SystemInit        system_stm32f1xx.o
    0x08007100   0x0000008c   Code   RO         1806    i.TIM_Base_SetConfig  stm32f1xx_hal_tim.o
    0x0800718c   0x00000014   Code   RO         1817    i.TIM_ETR_SetConfig  stm32f1xx_hal_tim.o
    0x080071a0   0x00000010   Code   RO         1818    i.TIM_ITRx_SetConfig  stm32f1xx_hal_tim.o
    0x080071b0   0x00000022   Code   RO         1824    i.TIM_TI1_ConfigInputStage  stm32f1xx_hal_tim.o
    0x080071d2   0x00000024   Code   RO         1826    i.TIM_TI2_ConfigInputStage  stm32f1xx_hal_tim.o
    0x080071f6   0x00000002   Code   RO          312    i.UsageFault_Handler  stm32f1xx_it.o
    0x080071f8   0x00000028   Code   RO         3216    i.__ARM_fpclassify  m_ws.l(fpclassify.o)
    0x08007220   0x00000020   Code   RO         1224    i.__NVIC_SetPriority  stm32f1xx_hal_cortex.o
    0x08007240   0x0000000e   Code   RO         3080    i._is_digit         c_w.l(__printf_wp.o)
    0x0800724e   0x00000002   PAD
    0x08007250   0x00000014   Code   RO         2929    i.drawLineWithColor  gui.o
    0x08007264   0x000000a4   Code   RO         2930    i.drawNetwork       gui.o
    0x08007308   0x0000001c   Code   RO         2931    i.drawStringWithColor  gui.o
    0x08007324   0x0000002c   Code   RO           15    i.main              main.o
    0x08007350   0x00000050   Code   RO         2981    i.setAdcFrequency   osc.o
    0x080073a0   0x00000028   Code   RO         2932    i.setBackGroundColor  gui.o
    0x080073c8   0x00000050   Code   RO         2933    i.setBackGroundText  gui.o
    0x08007418   0x00000040   Code   RO         2982    i.setWaveEnlarge    osc.o
    0x08007458   0x000000ac   Code   RO         2983    i.setWaveOffset     osc.o
    0x08007504   0x00000084   Code   RO         2984    i.updateDifVoMaxAndMin  osc.o
    0x08007588   0x00000090   Code   RO         2985    i.updateWaveFrequency  osc.o
    0x08007618   0x0000002c   Code   RO         3212    locale$$code        c_w.l(lc_numeric_c.o)
    0x08007644   0x00000062   Code   RO         3099    x$fpl$d2f           fz_ws.l(d2f.o)
    0x080076a6   0x00000002   PAD
    0x080076a8   0x00000150   Code   RO         3101    x$fpl$dadd          fz_ws.l(daddsub_clz.o)
    0x080077f8   0x000002b0   Code   RO         3108    x$fpl$ddiv          fz_ws.l(ddiv.o)
    0x08007aa8   0x0000005e   Code   RO         3111    x$fpl$dfix          fz_ws.l(dfix.o)
    0x08007b06   0x00000002   PAD
    0x08007b08   0x0000005a   Code   RO         3115    x$fpl$dfixu         fz_ws.l(dfixu.o)
    0x08007b62   0x0000002e   Code   RO         3120    x$fpl$dflt          fz_ws.l(dflt_clz.o)
    0x08007b90   0x00000026   Code   RO         3119    x$fpl$dfltu         fz_ws.l(dflt_clz.o)
    0x08007bb6   0x00000002   PAD
    0x08007bb8   0x00000154   Code   RO         3125    x$fpl$dmul          fz_ws.l(dmul.o)
    0x08007d0c   0x0000009c   Code   RO         3151    x$fpl$dnaninf       fz_ws.l(dnaninf.o)
    0x08007da8   0x0000000c   Code   RO         3153    x$fpl$dretinf       fz_ws.l(dretinf.o)
    0x08007db4   0x000001d4   Code   RO         3103    x$fpl$dsub          fz_ws.l(daddsub_clz.o)
    0x08007f88   0x00000056   Code   RO         3127    x$fpl$f2d           fz_ws.l(f2d.o)
    0x08007fde   0x00000002   PAD
    0x08007fe0   0x000000c4   Code   RO         3129    x$fpl$fadd          fz_ws.l(faddsub_clz.o)
    0x080080a4   0x0000003e   Code   RO         3135    x$fpl$ffixu         fz_ws.l(ffixu.o)
    0x080080e2   0x0000008c   Code   RO         3155    x$fpl$fnaninf       fz_ws.l(fnaninf.o)
    0x0800816e   0x0000000a   Code   RO         3157    x$fpl$fretinf       fz_ws.l(fretinf.o)
    0x08008178   0x000000ea   Code   RO         3131    x$fpl$fsub          fz_ws.l(faddsub_clz.o)
    0x08008262   0x00000004   Code   RO         3139    x$fpl$printf1       fz_ws.l(printf1.o)
    0x08008266   0x00000000   Code   RO         3159    x$fpl$usenofp       fz_ws.l(usenofp.o)
    0x08008266   0x00000010   Data   RO         2686    .constdata          system_stm32f1xx.o
    0x08008276   0x00000008   Data   RO         2687    .constdata          system_stm32f1xx.o
    0x0800827e   0x00004740   Data   RO         2754    .constdata          lcd.o
    0x0800c9be   0x00000002   PAD
    0x0800c9c0   0x00000094   Data   RO         3187    .constdata          c_w.l(bigflt0.o)
    0x0800ca54   0x00000020   Data   RO         3356    Region$$Table       anon$$obj.o
    0x0800ca74   0x0000001c   Data   RO         3211    locale$$data        c_w.l(lc_numeric_c.o)


    Execution Region RW_IRAM1 (Base: 0x20000000, Size: 0x000017e0, Max: 0x0000c000, ABSOLUTE)

    Base Addr    Size         Type   Attr      Idx    E Section Name        Object

    0x20000000   0x0000000c   Data   RW          761    .data               stm32f1xx_hal.o
    0x2000000c   0x00000004   Data   RW         2688    .data               system_stm32f1xx.o
    0x20000010   0x00000004   Data   RW         2755    .data               lcd.o
    0x20000014   0x0000002c   Data   RW         2987    .data               osc.o
    0x20000040   0x00000074   Zero   RW          195    .bss                adc.o
    0x200000b4   0x00000048   Zero   RW          261    .bss                tim.o
    0x200000fc   0x0000000e   Zero   RW         2753    .bss                lcd.o
    0x2000010a   0x00001072   Zero   RW         2986    .bss                osc.o
    0x2000117c   0x00000060   Zero   RW         3219    .bss                c_w.l(libspace.o)
    0x200011dc   0x00000004   PAD
    0x200011e0   0x00000200   Zero   RW            2    HEAP                startup_stm32f103xe.o
    0x200013e0   0x00000400   Zero   RW            1    STACK               startup_stm32f103xe.o


==============================================================================

Image component sizes


      Code (inc. data)   RO Data    RW Data    ZI Data      Debug   Object Name

       224         30          0          0        116       1667   adc.o
        44          4          0          0          0        734   dma.o
       316         24          0          0          0       1015   gpio.o
       332         74          0          0          0       2923   gui.o
     16296        140      18240          4         14      22378   lcd.o
       170          4          0          0          0     502388   main.o
      1892        264          0         44       4210       7077   osc.o
        64         26        304          0       1536        800   startup_stm32f103xe.o
       164         28          0         12          0       6353   stm32f1xx_hal.o
      1140         60          0          0          0       7143   stm32f1xx_hal_adc.o
       216          6          0          0          0       1354   stm32f1xx_hal_adc_ex.o
       198         14          0          0          0      28519   stm32f1xx_hal_cortex.o
       862         44          0          0          0       3231   stm32f1xx_hal_dma.o
       548         48          0          0          0       3670   stm32f1xx_hal_gpio.o
        68         10          0          0          0        850   stm32f1xx_hal_msp.o
      1240         88          0          0          0       4313   stm32f1xx_hal_rcc.o
       448         44          0          0          0       2369   stm32f1xx_hal_rcc_ex.o
       650         42          0          0          0       6072   stm32f1xx_hal_tim.o
       124         20          0          0          0       1248   stm32f1xx_hal_tim_ex.o
        52          6          0          0          0       5488   stm32f1xx_it.o
         2          0         24          4          0       1083   system_stm32f1xx.o
       172         26          0          0         72       2019   tim.o

    ----------------------------------------------------------------------
     25236       1002      18602         64       5948     612694   Object Totals
         0          0         32          0          0          0   (incl. Generated)
        14          0          2          0          0          0   (incl. Padding)

    ----------------------------------------------------------------------

      Code (inc. data)   RO Data    RW Data    ZI Data      Debug   Library Member Name

         8          0          0          0          0         68   __main.o
       284          0          0          0          0        156   __printf_wp.o
         0          0          0          0          0          0   __rtentry.o
        12          0          0          0          0          0   __rtentry2.o
         6          0          0          0          0          0   __rtentry4.o
        52          8          0          0          0          0   __scatter.o
        26          0          0          0          0          0   __scatter_copy.o
        28          0          0          0          0          0   __scatter_zi.o
        48          6          0          0          0         96   _printf_char_common.o
         6          0          0          0          0          0   _printf_d.o
       120         16          0          0          0         92   _printf_dec.o
         6          0          0          0          0          0   _printf_f.o
      1050          0          0          0          0        216   _printf_fp_dec.o
       128         16          0          0          0         84   _printf_fp_infnan.o
       178          0          0          0          0         88   _printf_intcommon.o
         0          0          0          0          0          0   _printf_percent.o
         4          0          0          0          0          0   _printf_percent_end.o
        10          0          0          0          0         68   _sputc.o
       220          4        148          0          0         96   bigflt0.o
      1910        128          0          0          0        672   btod.o
        12          0          0          0          0         72   exit.o
         6          0          0          0          0        152   heapauxi.o
         0          0          0          0          0          0   indicate_semi.o
        44         10         28          0          0         76   lc_numeric_c.o
         2          0          0          0          0          0   libinit.o
        18          0          0          0          0          0   libinit2.o
         2          0          0          0          0          0   libshutdown.o
         2          0          0          0          0          0   libshutdown2.o
         8          4          0          0         96         68   libspace.o
       138          0          0          0          0         80   lludiv10.o
        40          6          0          0          0         84   noretval__2sprintf.o
         8          4          0          0          0         68   rt_locale_intlibspace.o
        78          0          0          0          0         80   rt_memclr_w.o
         2          0          0          0          0          0   rtexit.o
        10          0          0          0          0          0   rtexit2.o
       128          0          0          0          0         68   strcmpv7m.o
        12          4          0          0          0         68   sys_exit.o
        74          0          0          0          0         80   sys_stackheap_outer.o
         2          0          0          0          0         68   use_no_semi.o
        98          4          0          0          0         92   d2f.o
       804         16          0          0          0        272   daddsub_clz.o
       688        140          0          0          0        208   ddiv.o
        94          4          0          0          0         92   dfix.o
        90          4          0          0          0         92   dfixu.o
        84          0          0          0          0        136   dflt_clz.o
       340         12          0          0          0        104   dmul.o
       156          4          0          0          0         92   dnaninf.o
        12          0          0          0          0         68   dretinf.o
        86          4          0          0          0         84   f2d.o
       430          8          0          0          0        168   faddsub_clz.o
        62          4          0          0          0         84   ffixu.o
       140          4          0          0          0         84   fnaninf.o
        10          0          0          0          0         68   fretinf.o
         4          0          0          0          0         68   printf1.o
         0          0          0          0          0          0   usenofp.o
        40          0          0          0          0         68   fpclassify.o

    ----------------------------------------------------------------------
      7842        410        176          0        100       4380   Library Totals
        22          0          0          0          4          0   (incl. Padding)

    ----------------------------------------------------------------------

      Code (inc. data)   RO Data    RW Data    ZI Data      Debug   Library Name

      4682        206        176          0         96       2600   c_w.l
      3098        204          0          0          0       1712   fz_ws.l
        40          0          0          0          0         68   m_ws.l

    ----------------------------------------------------------------------
      7842        410        176          0        100       4380   Library Totals

    ----------------------------------------------------------------------

==============================================================================


      Code (inc. data)   RO Data    RW Data    ZI Data      Debug   

     33078       1412      18778         64       6048     609530   Grand Totals
     33078       1412      18778         64       6048     609530   ELF Image Totals
     33078       1412      18778         64          0          0   ROM Totals

==============================================================================

    Total RO  Size (Code + RO Data)                51856 (  50.64kB)
    Total RW  Size (RW Data + ZI Data)              6112 (   5.97kB)
    Total ROM Size (Code + RO Data + RW Data)      51920 (  50.70kB)

==============================================================================

