:020000040800F2
:10000000E8070020CD01000843180008E1150008AA
:1000100041180008EF020008431B00080000000020
:100020000000000000000000000000004718000869
:100030009703000800000000451800084918000850
:10004000E7010008E7010008E7010008E7010008F0
:10005000E7010008E7010008E7010008E7010008E0
:10006000E7010008E7010008E7010008E7010008D0
:10007000E7010008E7010008E7010008E7010008C0
:10008000E7010008E7010008E7010008E7010008B0
:10009000E7010008E7010008E7010008E7010008A0
:1000A000E7010008E7010008E7010008E701000890
:1000B000E7010008E7010008E7010008E701000880
:1000C000E7010008E7010008E7010008E701000870
:1000D000E7010008E7010008E7010008E701000860
:1000E000E7010008E7010008E7010008E701000850
:1000F000E7010008E7010008E7010008E701000840
:10010000E7010008E7010008E7010008E70100082F
:10011000E7010008E7010008E7010008E70100081F
:10012000E7010008E7010008550300086103000823
:1001300000F002F800F03AF80AA090E8000C8244BF
:100140008344AAF10107DA4501D100F02FF8AFF29C
:10015000090EBAE80F0013F0010F18BFFB1A43F0A5
:1001600001031847342E0000542E0000103A24BF1B
:1001700078C878C1FAD8520724BF30C830C144BF0C
:1001800004680C607047000000230024002500264E
:10019000103A28BF78C1FBD8520728BF30C148BFEA
:1001A0000B6070471FB51FBD10B510BD00F06CF897
:1001B0001146FFF7F7FF02F009F800F08AF803B4E0
:1001C000FFF7F2FF03BC00F08BF8000009488047FE
:1001D00009480047FEE7FEE7FEE7FEE7FEE7FEE729
:1001E000FEE7FEE7FEE7FEE704480549054A064B41
:1001F00070470000AB18000831010008E80100203A
:10020000E8070020E8030020E80300204FF0000288
:1002100000B5134694469646203922BFA0E80C50FC
:10022000A0E80C50B1F12001BFF4F7AF090728BFD7
:10023000A0E80C5048BF0CC05DF804EB890028BF53
:1002400040F8042B08BF704748BF20F8022B11F07C
:10025000804F18BF00F8012B7047704770477047F8
:1002600010B500F009F8006810BD10B5044600F0A4
:1002700003F8046010BD00000048704784010020AE
:1002800000487047840100207546FFF7F9FFAE462D
:1002900005006946534620F00700854618B020B592
:1002A000FFF7A2FFBDE820404FF000064FF0000727
:1002B0004FF000084FF0000B21F00701AC46ACE80E
:1002C000C009ACE8C009ACE8C009ACE8C0098D467B
:1002D00070470446AFF300802046FFF770FF000030
:1002E00001491820ABBEFEE7260002007047FEE77A
:1002F00010B5446A204600F077F80120207110BD47
:1003000010B5446A204600F049F80120207110BD64
:1003100010B5446A206940F004002061204600F0D6
:1003200065F80120207110BD10B5446A206940F0C5
:1003300004002061204600F033F80120207110BD38
:1003400010B5406A00F051F810BD10B5406A00F0D9
:1003500026F810BD014800F037B900002400002045
:10036000014800F031B900006800002030B590F875
:1003700040500124AC40C56B6C6004686360436806
:10038000102B036803D099600068C26030BD9A608A
:100390000068C16030BD704772B6FEE770477047B5
:1003A000704770B54379012B1CD00126467102239A
:1003B000037105682B6802F0100440F6FE72A2403B
:1003C0009343D1E900210A43A2401A432A600168FD
:1003D0000A68C023A3409A430A6006710021417154
:1003E000084670BD022070BD70477047704770B5F9
:1003F000040003D02079002510B105E0012070BD74
:100400006571204600F008F8022020712561012066
:100410002071002070BD00002DE9F04F85B000264E
:100420000546009601960296039600682349884285
:1004300041D12348C16941F00051C161C16901F056
:1004400000510491816941F004018161806969462C
:1004500000F004000490302000900320019019481F
:1004600000F04CFA194C1848802701C410204FF4B2
:1004700080784FF480694FF0200A4FF4405B84E8A5
:10048000C10F201F241F00F0C3F908B1FFF784FF3C
:10049000AC6065620D4C0C484434143001C410202B
:1004A00084E8C10F201F241F00F0B2F908B1FFF744
:1004B00073FFEC60656205B0BDE8F08F007400402A
:1004C00000100240000801403004024024000020D7
:1004D0002DE9F04104460D46174661790022069841
:1004E000012920D00126667102212171F5B1D4F8CD
:1004F0000CC02F49CCF82810D4F80CC02D49CCF8EA
:100500002C10D4F80CC02C49CCF830102168D1F84C
:1005100000C04CF0805CC1F800C068B304282ED045
:10052000082831D12EE00220BDE8F081D4F808C0BF
:100530002249CCF82810D4F808C02149CCF82C1056
:10054000D4F808C01F49CCF830102168D1F800C099
:100550004CF4805CC1F800C020B1042805D0082804
:1005600008D105E02268083204E022680C3201E07C
:1005700022681032A06808E02268143204E0226881
:10058000183201E022681C32E068394600F07EF93A
:100590000021617120B1216941F004012161C3E7AB
:1005A00021680A6805F010039E4032430A60BBE7E9
:1005B000010300084B03000829030008F1020008AA
:1005C00041030008110300082DE9F05FC16B0A68C0
:1005D00001680B68046C4FF0040808FA04F8844DB5
:1005E000844E854FDFF814C2DFF81492DFF814A2AE
:1005F000DFF814B2DFF814E218EA020F65D05FEA00
:10060000437862D50A68920603D40A6822F004028D
:100610000A60DFF8F0814FF48062016808F1140885
:1006200013011402414524D9A9420DD0B1420FD083
:10063000B9421AD0614515D0494515D0514501D16F
:10064000120312E0594501D104220EE0714501D197
:1006500040220AE06D4D1435A94206D06B4A28327B
:10066000914201D11A4600E022466749091F0A60FB
:1006700029E0A94213D0B14215D0B94220D061453A
:100680001BD049451BD0514502D14FF4800217E0E1
:10069000414502D14FF0806212E0594501D1042258
:1006A0000EE0714501D140220AE0584D1435A942AF
:1006B00006D0564A2832914201D11A4600E022461D
:1006C0004B4908394A60C16A71E04FF0020808FAE4
:1006D00004F818EA020F70D05FEA83786DD50A68D3
:1006E000920606D40A6822F00A020A60012180F804
:1006F0002110DFF810814FF40072016808F114082E
:1007000013011402414524D9A9420DD0B1420FD0A2
:10071000B9421AD0614515D0494515D0514501D18E
:10072000120312E0594501D102220EE0714501D1B8
:1007300020220AE0354D1435A94206D0334A28322A
:10074000914201D11A4600E022462F49091F0A6052
:1007500029E0A94213D0B14215D0B94220D0614559
:100760001BD049451BD0514502D14FF4001217E070
:10077000414502D14FF0007212E0594501D10222E9
:100780000EE0714501D120220AE0204D1435A94226
:1007900006D01E4A2832914201D11A4600E0224674
:1007A000134908394A60002180F82010816A002925
:1007B0001CD0BDE8F05F0847FFE70825A5401542BB
:1007C00014D01A0712D50A6822F00E020A6090F8B7
:1007D0004020C36B012101FA02F25A60816380F864
:1007E0002110002180F82010016BE0E7BDE8F09FA8
:1007F000080002401C000240300002404400024059
:10080000580002406C000240080402401C040240F0
:1008100030B560B11A4B026814219A4209D2194BC3
:100820001344B3FBF1F18900016417490AE0012088
:1008300030BD134B5B421344B3FBF1F189000164FB
:100840000F490839C163022180F82110136843F66B
:10085000F0718B43F0E901142143D0E902452C43A8
:100860002143046921434469214384692143194395
:10087000116000214163012242770177084630BDB3
:1008800008040240F8FFFDBF0000024070B50446B6
:1008900090F82000002501280CD0012084F82000C9
:1008A00094F821600020012E06D084F82000022553
:1008B000284670BD022070BD022684F82160A06326
:1008C0002068066826F0010606602046FFF74EFD08
:1008D000E06A00282068016802D041F00E0106E0BD
:1008E00021F0040101602068016841F00A01016003
:1008F0002068016841F001010160D9E72DE9F84F56
:10090000DFF8C891002409F1040A0AF1040B234618
:100910000F270BF1040ED1E00125A54006EA0502E0
:10092000AA4276D1DFF8A8C14E68A6EB0C0866454E
:100930002BD00DDC032E34D005DC36B3012E19D0BC
:10094000022E2FD11BE0112E16D0122E2AD119E023
:10095000B8F5881F19D006DCB8F5803F15D0B8F57A
:10096000801F1FD111E0B8F5001F0ED0B8F5041F8D
:1009700018D10AE0CB6815E0CB681B1D12E0CB68EC
:1009800008330FE0CB680C330CE08B682BB1012BE4
:100990004FF0080303D0456104E0042302E0056141
:1009A00000E00023FF2A01D8064601E000F104061A
:1009B0004FEA840501D9A5F12005D6F8008007FA91
:1009C00005FC28EA0C0803FA05F548EA0508C6F80C
:1009D00000804D68ED0070D53E4DAE6946F00106D1
:1009E000AE61AD6924F0030605F0010500953A4DAE
:1009F00006EB050CDCF80850A607360F07FA06F8D8
:100A000025EA0805DFF8D480404503D14FF00008FF
:100A100025E052E0DFF8C880404502D14FF00108E0
:100A20001DE0DFF8C080404502D14FF0020816E01B
:100A3000DFF8B480404502D14FF003080FE0DFF843
:100A4000AC80404502D14FF0040808E0DFF8A080F8
:100A5000404502D14FF0050801E04FF0060808FAC2
:100A600006F848EA0508CCF808804D68D9F8006017
:100A7000ED034D4601D5164300E096432E604D68C8
:100A8000DAF80060AD03554601D5164300E0964301
:100A90002E604D68DBF80060ED025D4601D516431F
:100AA00000E096432E604D68DEF80060AD027546AA
:100AB00001D5164300E096432E60641C0A68164672
:100AC000E2407FF429AFBDE8F88F00000004014048
:100AD0000000111000100240000001400008014019
:100AE000000C0140001001400014014000180140BA
:100AF000001C014001488068704700000000002091
:100B0000024881680278114481607047000000202B
:100B1000074810B5016841F010010160032000F0A2
:100B200075F80F2000F006F800F024F8002010BD42
:100B30000020024070B50D4D04464FF47A712878BC
:100B4000B1FBF0F00A490968B1FBF0F000F0CCFA13
:100B500048B9102C07D200222146501E00F036F86A
:100B600000206C6070BD012070BD000000000020FE
:100B70000C0000200C4808B5816941F00101816139
:100B8000816901F001010091C16941F08051C161A9
:100B9000C06900F0805000900448416821F0E06195
:100BA00041F00071416008BD0010024000000140AA
:100BB000002809DB00F01F0201219140400980005C
:100BC00000F1E020C0F8001170470000F0B40E4BB7
:100BD0001B680C46C3F30223C3F10705042D00D99B
:100BE0000425191D072901D2002300E0DB1E012680
:100BF00006FA05F1491E214099409E40761E164096
:100C00003143F0BC00F0B2BF0CED00E0064900F04B
:100C1000070208684FF6FF03184040EA0220034A23
:100C200010430860704700000CED00E00000FA057A
:100C30002DE9F0470F46050061D0434E306800F0C3
:100C40000700B84209D2306820F00700384330600E
:100C5000306800F00700B84251D128683B4C81074A
:100C600012D5400703D5606840F4E06060602878E2
:100C7000000703D5606840F4605060606068A96850
:100C800020F0F000084360602878C00728D068682A
:100C9000012810D02168022810D0890700292EDAF7
:100CA000616821F0030101436160FFF723FF804683
:100CB00041F288390DE021688903EFE78901EDE70A
:100CC000FFF718FFA0EB0801494502D90320BDE852
:100CD000F0876068696800F00C00B0EB810FEFD11D
:100CE000306800F00700B8420BD9306820F00700E8
:100CF00038433060306800F00700B84201D001206E
:100D0000E5E72878400705D56068E96820F4E060E9
:100D1000084360602878000706D56068296920F4D8
:100D2000605040EAC100606000F018F86168084A4D
:100D3000C1F30311515CC8400649086006480068C9
:100D4000FFF7F8FE0020C2E700200240001002403A
:100D5000662E00080C0000200400002012A185B0BF
:100D60000FC98DE80F0014A0144A00680490516860
:100D7000134801F00C03042B10D0082B0ED1C1F343
:100D80008343C9031DF803000AD5516804AAC1F3BF
:100D90004041515C0A4A5043B0FBF1F005B0704746
:100DA00008494843FAE7000002030405060708095A
:100DB0000A0B0C0D0E0F1010010200000010024073
:100DC00000127A0000093D002DE9F84F040070D0B0
:100DD0002078C04DC00749D06868C0F38100012861
:100DE00007D06868C0F38100022809D16868C00391
:100DF00006D52868800339D560680028E7D035E03B
:100E00006068B0F5803F0BD010B1B0F5A02F11D0C5
:100E1000286820F480302860286820F4802002E0D0
:100E2000286840F480302860606890B1FFF762FE67
:100E300006460AE0286840F480202860F0E700BFFA
:100E4000FFF758FE801B642873D828688003F7D505
:100E50000CE0FFF74FFE064605E000BFFFF74AFE35
:100E6000801B6428F0D828688003F7D420789A4E35
:100E700080074FF001094FF0000839D5686810F07D
:100E80000C0F07D06868C0F38100022809D1686898
:100E9000C00306D42868800714D52069012808D12A
:100EA00010E02069B0B1C6F80090FFF723FE0746B6
:100EB00005E00AE1FFF71EFEC01B0228C4D828681F
:100EC0008007F7D52868616920F0F80040EAC10082
:100ED00028600DE0C6F80080FFF70CFE074604E02E
:100EE000FFF708FEC01B022823D828688007F7D424
:100EF000207800072CD57948A169D9B1C0F80090B5
:100F0000FFF7F8FD074604E0FFF7F4FDC01B0228D9
:100F10000FD8686A8007F7D571484FF4FA51006816
:100F2000B0FBF1F0009000BF0098411E0091FAD292
:100F30000EE080E0C0F80080FFF7DCFD074604E02B
:100F4000FFF7D8FDC01B022875D8686A8007F7D460
:100F50002078400760D5E8690027C00008D4E86918
:100F600040F08050E861E869012700F0805000906F
:100F70005C480168C90513D40168834641F4807157
:100F80000160FFF7B7FD824606E000BFFFF7B2FD44
:100F9000A0EB0A0064284ED8DBF80000C005F5D5A8
:100FA000E06801280AD008B1052813D0286A20F08B
:100FB00001002862286A20F0040002E0286A40F05C
:100FC00001002862E06841F2883B98B1FFF792FD8A
:100FD00082460BE0286A40F004002862EEE700BF7A
:100FE000FFF788FDA0EB0A0159455AD8286A800707
:100FF000F6D50CE0FFF77EFD824605E0FFF77AFDAF
:10100000A0EB0A0159454CD8286A8007F6D41FB1D5
:10101000E86920F08050E861E06988B36968C1F34D
:101020008101022944D00228C6F8608004D0FFF76D
:1010300061FD044638E034E0FFF75CFD074604E05C
:10104000FFF758FDC01B02282BD828688001F7D471
:10105000206AB0F5803F05D16868A16820F40030AF
:1010600008436860D4E908010843696821F47411F1
:1010700008436860C6F86090FFF73CFD044606E050
:1010800025E000BFFFF736FD001B022809D82868BD
:101090008001F7D51BE000BFFFF72CFD001B0228E5
:1010A00002D90320BDE8F88F28688001F4D40EE04F
:1010B0000128F7D06868226A00F48031914204D197
:1010C000616A00F47010884201D00120EAE7002034
:1010D000E8E7000000100240000042428004424263
:1010E0000C0000200070004010B5401EB0F1807F61
:1010F00001D3012010BD4FF0E02460610F21601783
:1011000000F034FD0020A06107202061002010BD08
:1011100070B590F83C20012A2CD0012480F83C4086
:10112000022280F83D2003685A689D6822F070060C
:101130000A6832435A60104B02689A420ED00F4B35
:101140009A420BD0B2F1804F08D00D4B9A4205D095
:101150000C4B9A4202D00C4B9A4204D1496825F0BC
:1011600080031943916080F83D40002180F83C10D5
:10117000084670BD022070BD002C014000340140C3
:101180000004004000080040000C004010B50400BE
:1011900003D094F83D0010B107E0012010BD0020FD
:1011A00084F83C00204600F01FF8022084F83D003F
:1011B000211D206800F07AFB012084F8460084F8A5
:1011C0003E0084F83F0084F8400084F8410084F831
:1011D000420084F8430084F8440084F8450084F811
:1011E0003D00002010BD000008B501681148B1F1B4
:1011F000804F0BD0104A914210D1C16941F00201D9
:10120000C161C06900F00200009008BDC16941F0F1
:101210000101C161C06900F00100F5E7074A914290
:10122000F3D1C16941F00401C161C06900F004005B
:10123000EAE70000001002400004004000080040FF
:1012400090F83D10012901D001207047022180F85B
:101250003D1000680E4988420ED00E4988420BD0DE
:10126000B0F1804F08D00C49884205D00B49884224
:1012700002D00B49884204D1816801F00701062998
:1012800003D0016841F001010160002070470000B7
:10129000002C0140003401400004004000080040E0
:1012A000000C004070B5044690F83C00012817D0AF
:1012B000012584F83C50022084F83D0020688268B3
:1012C00022F0770222F47F4282600868502830D0F2
:1012D0000DDC20284DD005DC98B310283BD148E028
:1012E000022070BD302844D0402834D139E0602835
:1012F00028D0702806D0B0F5805F2CD0B0F5005F04
:1013000029D10AE0CB68D1E90121206800F021FB56
:101310002068816841F0770109E0CB68D1E90121BB
:10132000206800F016FB2068816841F480418160EC
:1013300011E0CA684968206800F0E0FB502120688D
:1013400007E016E0CA684968206800F0E8FB602101
:10135000206800F008FB84F83D50002084F83C0031
:1013600070BDCA684968206800F0C8FB4021206849
:10137000EFE7226801461046EBE7000000B585B0B4
:1013800000210091019102910391194B02681948C3
:1013900002219A4211D1826942F00402826180697D
:1013A000039100F0040004904020CDE9000169465B
:1013B0001148FFF7A3FA05B000BD104B9A42FAD1CD
:1013C000826942F0200282618069039100F020006E
:1013D00004909814CDE9000169460948FFF78EFA98
:1013E0000848416841F0E06141F480514160E2E722
:1013F00000040040001002400008014000080040C6
:10140000001401400000014070B5044690F83C0013
:101410000D4601280AD0012084F83C0042B1042A7C
:1014200018D0082A2AD00C2A4DD139E0022070BDEC
:10143000206800F0A1FA2068816941F0080181610B
:101440002068816921F004018161206881692A692D
:10145000114311E0206800F0BFFA2068816941F46F
:10146000006181612068816921F480618161206867
:1014700081692A6941EA0221816124E0206800F043
:10148000E1FA2068C16941F00801C1612068C169C1
:1014900021F00401C1612068C1692A69114311E08A
:1014A000206800F003FB2068C16941F40061C1615C
:1014B0002068C16921F48061C1612068C1692A691D
:1014C00041EA0221C161002084F83C0070BD10B5E2
:1014D000040003D094F83D0010B107E0012010BDD6
:1014E000002084F83C00204600F01EF8022084F81A
:1014F0003D00211D206800F0D9F9012084F8460044
:1015000084F83E0084F83F0084F8400084F84100ED
:1015100084F8420084F8430084F8440084F84500CD
:1015200084F83D00002010BD7047000010B504464F
:10153000022249B104290ED0082913D094F84100A1
:10154000012816D0012010BD94F83E000128F9D1E1
:1015500084F83E200FE094F83F000128F2D184F88F
:101560003F2008E094F840000128EBD184F84020A7
:1015700001E084F841200122206800F0DDF91349E0
:101580002068134A884201D0904203D1436C43F44F
:1015900000434364206888420DD090420BD0B0F1E4
:1015A000804F08D00B49884205D00B49884202D0B1
:1015B0000A49884204D1816801F00701062903D055
:1015C000016841F001010160002010BD002C0140C4
:1015D000003401400004004000080040000C0040BE
:1015E000FEE700001CB50024104900940E48019449
:1015F00008600846FEF7FBFE08B1FEF7CDFE24208A
:10160000CDE90004002269460848FEF7CAFE08B189
:10161000FEF7C2FE102269460448FEF7C2FE00280B
:1016200001D0FEF7B9FE1CBD007400401000002080
:101630000D4808B5416941F002014161406900224D
:1016400000F00200009011463A20FFF7BFFA3A205E
:10165000FFF7AEFA002211463B20FFF7B7FABDE8CC
:1016600008403B20FFF7A4BA001002400D4808B51F
:10167000816941F010018161816901F010010091DF
:10168000816941F004018161816901F004010091E7
:10169000816941F020018161806900F020000090A3
:1016A00008BD00000010024010B586B000241648A6
:1016B000009401940294039404944FF080410594A3
:1016C00001604721C0E901140321C0E903148461CA
:1016D000FFF75CFD08B1FEF75FFE4FF4805000900D
:1016E00069460948FFF7DEFD08B1FEF755FE2020E8
:1016F000CDE9040404A90448FFF70AFD002801D03D
:10170000FEF74AFE06B010BDAC00002010B58EB04A
:1017100000240794089409940A940B941C216846A9
:101720000C94FEF773FD1F481D4901604721C0E975
:10173000011440F2E731C0E903148461FFF726FD8C
:1017400008B1FEF729FE4FF48050079007A915480D
:10175000FFF7A8FD08B1FEF71FFE1248FFF7B7FE1E
:1017600008B1FEF719FE0B940BA90E480C94FFF775
:10177000CFFC08B1FEF710FE602000904FF4967089
:10178000CDE901040022694606480494FFF73CFEB7
:1017900008B1FEF701FE0348FFF7F0FD0EB010BDE3
:1017A00000040040F400002010B58EB0002407941F
:1017B000089409940A940B941C2168460C94FEF733
:1017C00025FD1E481C4901604721C0E90114632121
:1017D000C0E903148461FFF7D9FC08B1FEF7DCFD12
:1017E0004FF48050079007A91448FFF75BFD08B13C
:1017F000FEF7D2FD1148FFF76AFE08B1FEF7CCFDF7
:101800000B940BA90D480C94FFF782FC08B1FEF76E
:10181000C3FD602000903220CDE90104002269461A
:1018200006480494FFF7F0FD08B1FEF7B5FD034844
:10183000FFF7A4FD0EB010BD000800403C010020E1
:10184000FEE7FEE770477047FFF75AB930B58FB033
:1018500028216846FEF7DAFC14210AA8FEF7D6FC18
:1018600001210804CDE9001000240294022504910E
:10187000CDE907504FF4E01009906846FFF7A4FA4D
:1018800008B172B6FEE70F20CDE90A054FF480607B
:10189000CDE90C4002210AA80E94FFF7C9F90028EF
:1018A00001D072B6FEE70FB030BD7047F0B50268E8
:1018B0001C4B1D4D1D4E1E4F1E4C4FF0804C984230
:1018C00009D0A04207D0604505D0A84203D0B0425D
:1018D00001D0B84204D122F0700E4A6842EA0E02EA
:1018E000984209D0A04207D0604505D0A84203D055
:1018F000B04201D0B84203D122F44075CA682A43ED
:101900004D6922F080022A4302608A68C2620A6836
:101910008262984201D0A04201D10969016301218C
:101920004161F0BD002C014000040040000800406F
:10193000000C00400034014010B501F01F030121EC
:10194000046A99408C430462016A9A40114301621F
:1019500010BD10B5846842EA032224F47F440A4390
:101960002243826010BD826822F070020A4342F076
:101970000701816070470000F0B5026A22F00102A1
:101980000262036A42688469124E24F073050C688F
:101990002C4323F002058B682B430D4DA84201D048
:1019A000B04205D123F00807CB683B4323F0040382
:1019B000A84201D0B04205D14D6922F440721543CE
:1019C0008A692A4342608461496841630362F0BDC9
:1019D000002C014000340140F0B5026A22F01002F0
:1019E0000262026A436884690D6824F4E64444EAAA
:1019F00005248D6822F0200242EA05120F4D104E98
:101A0000A84201D0B04206D1CF6822F0800242EA5B
:101A1000071222F04002A84201D0B04207D14D691E
:101A200023F4406343EA85038D6943EA85034360F9
:101A30008461496881630262F0BD0000002C0140AE
:101A400000340140F0B5026A22F480720262026A38
:101A50004368C46922F4007224F073050C68124EC6
:101A60002C438D6842EA05220E4DA84201D0B042B7
:101A700006D1CF6822F4006242EA072222F4806293
:101A8000A84201D0B04207D14D6923F4405343EA44
:101A900005138D6943EA05134360C4614968C16356
:101AA0000262F0BD002C01400034014030B5026AF2
:101AB00022F480520262046A4268C3690D6823F40A
:101AC000E64343EA05238D6824F4005444EA0534D0
:101AD000084DA84202D0084DA84204D14D6922F415
:101AE000804242EA85124260C3614968016404622F
:101AF00030BD0000002C01400034014010B5036AE5
:101B0000046A24F001040462846924F0F00444EAC5
:101B1000021423F00A020A438461026210BD10B568
:101B2000036A23F0100303628369046A23F4704399
:101B300043EA023224F0A00343EA01118261016208
:101B400010BDFEE7490050EAC12018BF04204A0D2D
:101B500018BF40F0010040F2FF72B2EB515F08BFC6
:101B600040F00200012808BF052070470907090E50
:101B7000002804DB00F1E02080F80014704700F03A
:101B80000F0000F1E02080F8141D70472DE9F74F99
:101B9000144694B00021C4E902111599079121F06F
:101BA0000045C9498D4206DC1599C4E9000117B00A
:101BB0000020BDE8F08FC549DFF814A3A9423CDD41
:101BC0000799C44E0029C44FC44A1599534619DDDC
:101BD00000F076FF554506D0C14AC24B00F070FFB9
:101BE000C4E900010AE04FF0D352BE4B00F068FF99
:101BF00032463B4600F064FFC4E9000117B0012003
:101C0000BDE8F08F00F0C2FB554506D0B44AB54B95
:101C100000F0BCFBC4E900010AE04FF0D352B14B25
:101C200000F0B4FB32463B4600F0B0FBC4E90001D3
:101C300017B04FF0FF30BDE8F08FAB49A9421599BE
:101C400078DB21F0004183468846A84AA84B00F083
:101C50002DFE0022A74B00F099FB00F09FFD09909C
:101C600000F0F9FD06460F469C4A534600F01EFE62
:101C700043465A4600F018FF80468A46984A994BD8
:101C80003046394600F012FE2A0D01250B924246DD
:101C9000534600F009FF032DC4E9000139D00B9829
:101CA000C1F30A51401A05EB45111139814230DA6E
:101CB0009148C346784400EB0510CDF80CA00C9079
:101CC000D0E900233046394600F0F0FD02460B46CD
:101CD000049106905846039900F0F2FE80468A4629
:101CE00002460B465846039900F0EAFE049B069A0A
:101CF00000F0E6FE83460C9803913946D0E90223B2
:101D0000304600F0D3FD5A46039B00F0D9FE6D1C0F
:101D1000BDE707980028A2BF099817B0BDE8F08F6B
:101D2000616881F000416160099817B04042BDE8E8
:101D3000F08FFFE784461598C1F31301C0F30A50F2
:101D4000A0F2F5304FEA601800F01F06C6F120003F
:101D5000139000200690079041F4801E05206D46E8
:101D600076B1664A08EB00017A4452F8213002EB62
:101D70008101B3404A68139922FA01F1194305E041
:101D80005F4908EB0002794451F82210A1FB0E27AD
:101D9000A1FB0C131A449A4234BF0123002303EB26
:101DA000070A05EB8003D3E901B70F448F4234BF24
:101DB0000121002193448B4411B1934502D903E0E2
:101DC000934501D2012100E00021C3E901B751444C
:101DD00045F82010011EA0F10100C1DC0298059F0A
:101DE00000F10050800F12900298DDE90356800048
:101DF00000F031FD834628460D9100F043FD6FF061
:101E00001D0200F0EAFFCDE90E01304600F03AFD78
:101E10006FF03D0200F0E1FF80468A46384600F050
:101E200031FD6FF05D0200F0D8FF07464246534691
:101E3000119100F0ABFADDE90E2300F0A7FA5A4643
:101E40000D9B00F0A3FA00250E465A4628460D9B2E
:101E500000F036FEDDE90E2300F032FE4246534626
:101E600000F02EFE3A46119B00F01EFEDFF898A00F
:101E7000244A534600F01AFD07468846234A244B5D
:101E80003146284600F012FD3A46434600F07EFAFD
:101E9000074688464FF0A84253463146284600F090
:101EA00005FD3A46434600F071FA159A12F0004FCC
:101EB00004D0129A81F0004152421292C4E900010A
:101EC000129817B0BDE8F08FFB21E93F7CD90240A2
:101ED000FB21F93F7370032E8A19A33B0000405485
:101EE0003163621A61B4D03DFB21394183C8C96DA9
:101EF000305FE43F0000E03FF01100006C11000093
:101F00004E110000182D4454FB21F93D3326A61133
:101F1000460B113C2DE9FF4D21F0004807460C46C9
:101F2000B8F1795F08DA00F039FC002801BF002021
:101F3000324904B0BDE8F08D3A46234610461946B2
:101F400000F0B4FC054602462D480E460B4606211D
:101F5000784400F05DF82A46334600F0A7FCDDE93E
:101F6000022382468B463846214600F09FFC0446F9
:101F70000F4652465B462846314600F097FC224603
:101F80003B4600F09DFD07468A464FF0FF3228464B
:101F9000314600F022FF1B4A90450ADA3A46534682
:101FA00000F08EFD04B00022BDE8F04D134B00F0B0
:101FB0007BBD154A4245A8BFA8F500154FF00004A7
:101FC000B8BF124D22462B4600F07AFD06468846E1
:101FD00022462B460020094900F072FD04460D46BA
:101FE0003A4653463046414600F06AFD04B0224668
:101FF0002B46BDE8F04D00F057BD00000000F03F5B
:10200000240F00003333D33F0000E93F0000D23FEC
:102010002DE9F0414F1E00EBC7010446D1E9000154
:1020200015461E4637F006020DD02A46334600F00C
:102030003DFC7F1E04EBC703D3E9002300F0A6F9A3
:1020400037F00602F1D1022F25D0042F13D0062F2E
:1020500018BFBDE8F0812A46334600F027FCD4E9DA
:102060000A2300F093F92A46334600F01FFCD4E916
:10207000082300F08BF92A46334600F017FCD4E918
:10208000062300F083F92A46334600F00FFCD4E91A
:10209000042300F07BF92A46334600F007FCD4E91C
:1020A000022300F073F92A46334600F0FFFBD4E91F
:1020B0000023BDE8F04100F069B900002DE9FF4DB3
:1020C000054621F0004084B00C46B0F1795F0BDA90
:1020D0002846FFF737FD042808BF00F06FF82846B0
:1020E00008B02146BDE8F08D2A460B46104600F0A8
:1020F000DDFB06460F462A46234600F0D7FB804606
:1021000026488A4632463B4605217844FFF780FF41
:1021100083461098029160B3214A224B40465146B3
:1021200000F0C4FBCDE900015A4640465146029BEF
:1021300000F0BCFB82468846DDE906014FF0FF3225
:1021400000F04BFE5246434600F0BAFC32463B4696
:1021500000F0ACFBDDE9062300F0B2FCDDE9002372
:1021600000F0AEFC08B02A462346BDE8F04D00F072
:102170009BBC0B465A463046394600F097FB084A4E
:10218000084B00F003F94246534600F08FFB08B0BD
:102190002A462346BDE8F04D00F0F8B8620E000074
:1021A000495555555555C5BF012200F016BE0022B0
:1021B00013461046114600F099B90000024A00206B
:1021C000110700F00ABE000001FDFFFFADF5816DB3
:1021D000FEF79EFCFFF73AFBFFF748FAFFF728FAF5
:1021E000FFF762FAFFF792FAFFF7FCF9FFF7DCFA64
:1021F00000213648FFF79AF900213548FFF796F994
:1022000032494FF4967009684863314914200968CF
:102210004863002401AD2F4E2F4F01E0802C0DD2DA
:10222000204600F02FFB0022334600F05FF9002229
:102230003B4600F03BFB00F0E1FA03E0C4F1FF0095
:1022400035F8100025F81400641CA4B2FF2CE5D961
:102250002248002481AF00F01DFDDFF884900D4678
:1022600006466FF00708204600F00CFB424600F0DF
:10227000B4FD012200F0B1FD32462B4600F016FB02
:1022800000F034F800224B4600F080F80B2200F0FA
:10229000A4FD00F0B3FA27F81400641CA4B2FF2CCC
:1022A000E1D91048FEF7CCFF00244FF480752B468F
:1022B00001AA21460C480094FEF70AF92B4681AA90
:1022C000102109480094FEF703F9FEE7F40000200E
:1022D0003C01002000C05F4000FEAF40DA0F4940E3
:1022E0000000F03FAC0000201000002000B5254B9E
:1022F00021F0004287B09A4203DC0022134600928C
:102300002BE0214B9A4208D140B94FF00100FDF774
:10231000ACFFFFF74CFF07B000BD03DBFFF744FF46
:1023200007B000BD02AAFFF731FC10F003014FF027
:1023300001000DD0012914D002291AD00DF1080C8A
:102340009CE80F00FFF7E6FD07B081F0004100BDFB
:102350000DF1080C00909CE80F00FFF7AFFE07B0EE
:1023600000BD0DF1080C9CE80F00FFF7D3FD07B08E
:1023700000BD0DF1080C00909CE80F00FFF79EFED9
:10238000E2E70000FB21E93F0000F07F10B591EA91
:10239000030F48BF83F0004300F19A83841A71EB66
:1023A000030C05D2121943EB0C03001B61EB0C016B
:1023B000DFF824E14FEA1154A4EB135C1EEA430F4B
:1023C00018BF9EEA445F73D023EA0E03DCF1200EAF
:1023D00021EA045143F4801332D322FA0CFE10EBAD
:1023E0000E0023FA0CFE41EB0E01CCF1200E03FA95
:1023F0000EFE10EB0E0051F10001B1F5801FCCF183
:10240000200E32D201EB045112FA0EF2BDE8104058
:1024100058BF7047401C38BF5FEA420218BF704780
:10242000002814BF20F0010041F100014FEA4103F0
:1024300013F5001F38BF7047A1F1C04100F02EBB5B
:10244000012A43EB0302ACF1200CDCF11F0E32BF7A
:102450004FF0000E23FA0CF310EB030041EB045194
:10246000B4EB115FD0D0A1EB045101F58011490804
:102470005FEA300001EB04510ED350F1000038BF89
:1024800012FA0EFE08D1BDE81040C9E7401C38BF63
:102490005FEA4202CAD1C3E7BDE810404FEA4103F8
:1024A00013F5001F38BF7047A1F1C04100F0F6BA24
:1024B0009EEA445F08D011EA5E0FBDE8104004BFF9
:1024C00001F0004100207047BDE8104070B500F0F9
:1024D00097FA00BF64FBBE3E0000E0FF02494FF0E8
:1024E000000000F048BC00BF0000F87F2DE9C041AB
:1024F00030B4DFF8A0C23CEA111418BF3CEA131450
:1025000000F0EC8081EA03051CEA111444EAD5745A
:1025100018BF1CEA131500F0C780A4EB05044FF0A8
:10252000004545EAC12145EAC32341EA505143EA47
:10253000525304F17F74994204F500344FEAC020ED
:102540004FEAC22208BF904200F09C804FEA136518
:102550000FF24016765D4FEA134506FB05F7C7F10B
:10256000807706FB07F74FEAD737A7FB0368764269
:10257000C8F58038A7FB06CE38BFA8F1010807FBD5
:1025800008E64FF0000EA6FB028CE6FB03CEDCF162
:10259000000CCEF1004E38BFAEF1010EA6FB0C5878
:1025A0004FF000074FF00005E6FB0E87A1FB08C6C1
:1025B000A0FB07CE16EB0E0645F10005E1FB076513
:1025C00015F1E04E7EBFA4F580345FEA46066D410A
:1025D00016F1800745F100054FEA17274FEA066616
:1025E00047EA0567A6F1DE46B6F1805F4FEA15259A
:1025F0001FD9384624F0010C05EBC471BCF1FE6F05
:1026000001EB0C1102D8F0BCBDE8008124425CBF94
:1026100001F5801E9EEAC47F02D4F0BCBDE80081B3
:10262000244238D4F0BCA1F1C041BDE8004100F023
:1026300035BA4FEAD22242EA43524FEAD323A7FBEC
:1026400002864FEAD02040EA415007FB03661EEAAB
:102650000E0F4FEAD12105FB026658BFA6EB0056CC
:10266000B6EB00564FEA520E4EEAC37E18EB0E0E42
:1026700056EB530EBDD518EB02085E417F1C55F199
:102680000005B6E74FF480154FF000074FF0000645
:102690004FF00008ADE7F0BC4FF0000001F1C04181
:1026A00001F00041BDE8008111EA0C1F0CEA13158E
:1026B00000D00CE013EA0C1F00F025804FF0000062
:1026C000F0BC81EA030101F00041BDE80081F0BCEB
:1026D000BDE8004181EA030100F0E0B9F0BCBDE8CB
:1026E000004170B500F08CF9097EFC3E00F007B89F
:1026F00081EA03014FF0000001F00041704781EAD8
:10270000030100F0CBB9F0BCBDE800414FF0000080
:1027100021497047FFFDFBF9F7F5F4F2F0EEEDEB20
:10272000E9E8E6E4E3E1E0DEDDDBDAD8D7D5D4D3CF
:10273000D1D0CFCDCCCBCAC8C7C6C5C4C2C1C0BF1B
:10274000BEBDBCBBBAB9B8B7B6B5B4B3B2B1B0AF21
:10275000AEADACABAAA9A8A8A7A6A5A4A3A3A2A105
:10276000A09F9F9E9D9C9C9B9A99999897979695C0
:1027700095949393929191908F8F8E8E8D8C8C8B5C
:102780008B8A8989888887878685858484838382E4
:10279000828181800000FF070000F87F4FEA41033B
:1027A0004FEA5353A3F58063D3F11E03C8BFD3F19F
:1027B000210C0CDD4FF0004242EAC12242EA5052A5
:1027C00032FA03FC8CEAE17CACEBE1707047102B31
:1027D000C4BF0020704703F5787CBCF1FF3F04D0F4
:1027E0006FF0004282EA2100704770B500F008F9EE
:1027F0004992248000207047F2E700004FEA11530D
:10280000A3F58063D3F11E03A8BFD3F1200C08DB2E
:102810004FF0004242EAC12252EA505232FA03F02B
:10282000704709420BD4102BC4BF0020704703F53A
:10283000787CBCF1FF3F05D04FF0FF3070474FF080
:102840000000704770B500F0DBF800BF49922480AB
:1028500000207047F0E710F0004248BF4042B0FA55
:1028600080F310FA03F10AD0C3F11D0303F580636E
:102870004FEA415002EB035202EBD12170474FF077
:1028800000007047B0FA80F310FA03F10AD0C3F1E8
:102890001D0303F580634FEA41504FEA035202EBF8
:1028A000D12170474FF0000070470000DFF848C1A9
:1028B00070B51CEA111E1EBF1CEA13159EEA0C0F10
:1028C00095EA0C0F00F06F8081EA030423EA4C13B1
:1028D0004EEAD47E21EA4C1141F4801143F4801376
:1028E000AE44A1FB024CA0FB0365AEF17F7E36191E
:1028F00055EB0C05A1FB034C4CF10003A0FB021CA3
:1029000016EB0C06654153F10003094218BF46F06F
:10291000010613F4007F0BD14FEA03314FEA053073
:10292000340341EA155140EA16506FF003020AE001
:102930004FEAC3214FEAC520F40241EA555140EA6B
:1029400056506FF0020202EB2E4201EB025585EA6F
:10295000CE710AD05FEA440C18BF24F0004450F155
:10296000000041F1000120EAD47040F2FE7C624593
:1029700000D270BDA84214BF4FF080444FF04044D5
:10298000002E08BF0024BEF1806FA8BFA1F1C04196
:10299000BDE8704080F282804FF0000001F1C0413C
:1029A00001F0004170479EEA0C0F0CEA131518BFA6
:1029B00095EA0C0F06D04FF0000081EA030E0EF0EE
:1029C000004170BD00F01CF88900013E00F007B81E
:1029D00000F009B84FEA430C5FEA5C5C08D081EA7A
:1029E000030100F05BB84FEA410C5FEA5C5CF6D192
:1029F0004FF00000014970470000FF070000F87F1A
:102A00000EF1020E2EF0030E5EF8046B364205D472
:102A1000012A43EB030515F5001F12D8012841EBED
:102A2000010C1CF5001F0CD80ED14FEAD17C15F516
:102A3000001F0CEB4C0C0CF1020C08BF4CEBD37CD0
:102A400004E04FF0080C01E04FEAD37C0CEB4C059E
:102A500026FA05F606F00706B6F1040C06D20EEBD0
:102A6000860CBDE870404CF0010C6047DFE80CF0CC
:102A7000090B02024FF000414FF00000A1F50021C8
:102A800070BD19461046012851EB010418BFD4F55A
:102A9000001484BF002001F0004170BD0808A0F5BB
:102AA00000114FEA3101704791EA030F10B581F030
:102AB00000413FF573AC83F0004300F009B800001B
:102AC00010B591EA030F48BF83F000433FF566ACB1
:102AD000841A71EB030C07D212198CF0004C43EBF3
:102AE0000C03001B61EB0C01DFF8A4E14FEA115469
:102AF000A4EB135C1EEA430F18BF9EEA445F00F08C
:102B0000B08023EA6E03524221EA0451C3EB6E0304
:102B100038BF5B1EDCF1200E25D322FA0CFE10EB31
:102B20000E0043FA0CFE41EB0E01CCF1200E03FA2D
:102B30000EFE10EB0E0051F10001CCF1200E29D455
:102B400012FA0EF201EB0451BDE8104058BF704775
:102B5000401C1CBFB2F1004F704700280CBF491C3D
:102B600020F00100704712EB020E43EB030218BF86
:102B70004FF0010E4EEA4202ACF1200CDCF11E0EC9
:102B800054D943FA0CFE10EB0E0051F1FF31CCF199
:102B90001E0ED5D50EF1010E12FA0EFE404141EB8C
:102BA000010101EB445C5FEA5C5C10D910EBDE7064
:102BB00001EB045138BFBEF1004FBDE8104018BF13
:102BC000704700280CBF491C20F00100704730D22C
:102BD0004FEAD42C11F5001124F400641BD0B1FA93
:102BE00081F20B3AA41AA41ED2F12003914030FACC
:102BF00003F31943904001EBCC71002C01EB04511D
:102C0000BDE81040A8BF704701F1C0414FF000007F
:102C100001F000417047B0FA80F310FA03F100D1DF
:102C200010BDE41A173C4805C90AE4E701EB04515A
:102C300010BD491001EB0451BDE810404FEA3000CF
:102C400002E04FF0000170474A0008BF0042F8D090
:102C5000B2F5001F28BF704701F000414FF000009F
:102C600070479EEA445F07D011EA5E0FBDE810404E
:102C700004BF002100207047BDE8104070B5FFF789
:102C8000BFFE00BF40DFF63E83F0004110467047B4
:102C90000000E0FF43004FEAD30C4FEA3C0C4340F6
:102CA0001FBF40070CF1605113F0FE4F70471CF03E
:102CB000006F03D100200CF0004170470CF000437E
:102CC00043EA507010B540EACC0000F00EF800BFA7
:102CD000000000924FEA0001FFF7E0BE4FF0004114
:102CE0004FF00000A1F5002170470EF1020E2EF00A
:102CF000030E5EF8044B244204D44FEA4102B2F1C1
:102D00007F4F11D84FEA4003B3F17F4F0CD80ED15B
:102D10004FEAD07CB2F17F4F0CEB4C0C0CF1020C63
:102D200008BF4CEBD17C04E04FF0080C01E04FEA07
:102D3000D17C0CEB4C0324FA03F404F00704B4F147
:102D4000040C06D20EEB840CBDE810404CF0010CD4
:102D50006047DFE80CF0070802024FF00040A0F5E2
:102D6000800010BD0846420018BFD2F1807288BFB3
:102D700000F0004010BD0CF00F03092B08BF082025
:102D800000F059800A2B0BD0082B18BF704708BFE2
:102D90001CF0400F0AD04FF000004FF000017047C8
:102DA0001CF0400F18BF4FF0004070471CF0100F90
:102DB00008D020F0704300F07F4242EAD3014FEA8E
:102DC0004370704700F0604021F07F4242EA000209
:102DD00001F07F4040EA727070474FF0FF0C4CF4F6
:102DE000E06C1CEA11531CBF9CEA030C9445C2BF63
:102DF000DA4201EB02517047002B0DD0BCF1000FFD
:102E00000FD0002A01F00041A4BF41F0E04141F0A1
:102E10007F614FF00000704701F000414FF000006B
:102E2000704750EA01334FF09B0C18BF4CF0806C98
:102E30007FF454AB70471CF4801F11D01CF4E02FBA
:102E400003D06FEACC31490070474FF04050EFF3A8
:102E5000008222F0704242EA000282F3008870474A
:102E60004FF0000070470000000000000000010269
:102E700003040607080900004C5555555555A53F54
:102E80007751C1166CC156BF9015CB19A001FA3EFF
:102E9000AD529C804F7E92BEC4B1B4BD9EEE213E29
:102EA000D43888BEE9FAA8BD00004054FB21F93FA0
:102EB0003163621A61B4D03D0000601A61B4D03D44
:102EC0007370032E8A19A33B0000002E8A19A33BBE
:102ED000C14920259A837B390000000000000000D2
:102EE0006E83F9A22915444ED15727FCC0DD34F575
:102EF000999562DB4190433CAB6351FE61C5BBDEFB
:102F00003A6E24B7E0D24D42EA2E49061C92D1090E
:102F10001CEB1DFE3EA729B1F53582E88444BB2E8B
:102F200026709CE9417E5FB439D69139F4395383D8
:102F30008B5F849C3B28F9BDFF97F81F0F9805DE37
:102F40008B112FEF1F6D0A5ACF7E366DB709CB2735
:102F5000663F464F2DEA5F9EC7BA27757BF1E5EBCA
:102F6000F739073DEA92528AB15FFB6B085D8D1F0E
:102F7000A6F810111111813FD561C119A0012ABF16
:102F80007DFEB157E31DC73EEB9C2B8AE6E55ABE9A
:102F90007CD5CF5A3AD9E53DB82F00080000002073
:102FA000100000006C010008C82F0008100000206D
:102FB000D807000088010008010000001000000090
:082FC000000000000024F400F1
:0400000508000131BD
:00000001FF
